{
  "contractName": "BoNhaCai",
  "abi": [
    {
      "inputs": [
        {
          "internalType": "uint256",
          "name": "_price",
          "type": "uint256"
        }
      ],
      "stateMutability": "nonpayable",
      "type": "constructor"
    },
    {
      "anonymous": false,
      "inputs": [
        {
          "indexed": true,
          "internalType": "address",
          "name": "owner",
          "type": "address"
        },
        {
          "indexed": true,
          "internalType": "address",
          "name": "spender",
          "type": "address"
        },
        {
          "indexed": false,
          "internalType": "uint256",
          "name": "value",
          "type": "uint256"
        }
      ],
      "name": "Approval",
      "type": "event"
    },
    {
      "anonymous": false,
      "inputs": [
        {
          "indexed": false,
          "internalType": "address",
          "name": "owner",
          "type": "address"
        },
        {
          "indexed": false,
          "internalType": "address",
          "name": "resultContract",
          "type": "address"
        },
        {
          "indexed": false,
          "internalType": "uint256",
          "name": "endTime",
          "type": "uint256"
        },
        {
          "indexed": false,
          "internalType": "uint256",
          "name": "balance",
          "type": "uint256"
        }
      ],
      "name": "NewRound",
      "type": "event"
    },
    {
      "anonymous": false,
      "inputs": [
        {
          "indexed": true,
          "internalType": "address",
          "name": "from",
          "type": "address"
        },
        {
          "indexed": true,
          "internalType": "address",
          "name": "to",
          "type": "address"
        },
        {
          "indexed": false,
          "internalType": "uint256",
          "name": "value",
          "type": "uint256"
        }
      ],
      "name": "Transfer",
      "type": "event"
    },
    {
      "stateMutability": "payable",
      "type": "fallback"
    },
    {
      "inputs": [
        {
          "internalType": "address",
          "name": "owner",
          "type": "address"
        },
        {
          "internalType": "address",
          "name": "spender",
          "type": "address"
        }
      ],
      "name": "allowance",
      "outputs": [
        {
          "internalType": "uint256",
          "name": "",
          "type": "uint256"
        }
      ],
      "stateMutability": "view",
      "type": "function"
    },
    {
      "inputs": [
        {
          "internalType": "address",
          "name": "spender",
          "type": "address"
        },
        {
          "internalType": "uint256",
          "name": "amount",
          "type": "uint256"
        }
      ],
      "name": "approve",
      "outputs": [
        {
          "internalType": "bool",
          "name": "",
          "type": "bool"
        }
      ],
      "stateMutability": "nonpayable",
      "type": "function"
    },
    {
      "inputs": [
        {
          "internalType": "address",
          "name": "account",
          "type": "address"
        }
      ],
      "name": "balanceOf",
      "outputs": [
        {
          "internalType": "uint256",
          "name": "",
          "type": "uint256"
        }
      ],
      "stateMutability": "view",
      "type": "function"
    },
    {
      "inputs": [],
      "name": "decimals",
      "outputs": [
        {
          "internalType": "uint8",
          "name": "",
          "type": "uint8"
        }
      ],
      "stateMutability": "view",
      "type": "function"
    },
    {
      "inputs": [
        {
          "internalType": "address",
          "name": "spender",
          "type": "address"
        },
        {
          "internalType": "uint256",
          "name": "subtractedValue",
          "type": "uint256"
        }
      ],
      "name": "decreaseAllowance",
      "outputs": [
        {
          "internalType": "bool",
          "name": "",
          "type": "bool"
        }
      ],
      "stateMutability": "nonpayable",
      "type": "function"
    },
    {
      "inputs": [
        {
          "internalType": "address",
          "name": "spender",
          "type": "address"
        },
        {
          "internalType": "uint256",
          "name": "addedValue",
          "type": "uint256"
        }
      ],
      "name": "increaseAllowance",
      "outputs": [
        {
          "internalType": "bool",
          "name": "",
          "type": "bool"
        }
      ],
      "stateMutability": "nonpayable",
      "type": "function"
    },
    {
      "inputs": [],
      "name": "name",
      "outputs": [
        {
          "internalType": "string",
          "name": "",
          "type": "string"
        }
      ],
      "stateMutability": "view",
      "type": "function"
    },
    {
      "inputs": [
        {
          "internalType": "uint256",
          "name": "",
          "type": "uint256"
        }
      ],
      "name": "rounds",
      "outputs": [
        {
          "internalType": "uint256",
          "name": "endTime",
          "type": "uint256"
        },
        {
          "internalType": "address",
          "name": "resultContract",
          "type": "address"
        }
      ],
      "stateMutability": "view",
      "type": "function"
    },
    {
      "inputs": [],
      "name": "symbol",
      "outputs": [
        {
          "internalType": "string",
          "name": "",
          "type": "string"
        }
      ],
      "stateMutability": "view",
      "type": "function"
    },
    {
      "inputs": [
        {
          "internalType": "uint256",
          "name": "",
          "type": "uint256"
        }
      ],
      "name": "tickets",
      "outputs": [
        {
          "internalType": "uint256",
          "name": "value",
          "type": "uint256"
        },
        {
          "internalType": "uint256",
          "name": "ticketPrice",
          "type": "uint256"
        },
        {
          "internalType": "bool",
          "name": "payed",
          "type": "bool"
        },
        {
          "internalType": "uint256",
          "name": "roundId",
          "type": "uint256"
        }
      ],
      "stateMutability": "view",
      "type": "function"
    },
    {
      "inputs": [],
      "name": "token_price",
      "outputs": [
        {
          "internalType": "uint256",
          "name": "",
          "type": "uint256"
        }
      ],
      "stateMutability": "view",
      "type": "function"
    },
    {
      "inputs": [],
      "name": "totalSupply",
      "outputs": [
        {
          "internalType": "uint256",
          "name": "",
          "type": "uint256"
        }
      ],
      "stateMutability": "view",
      "type": "function"
    },
    {
      "inputs": [
        {
          "internalType": "address",
          "name": "recipient",
          "type": "address"
        },
        {
          "internalType": "uint256",
          "name": "amount",
          "type": "uint256"
        }
      ],
      "name": "transfer",
      "outputs": [
        {
          "internalType": "bool",
          "name": "",
          "type": "bool"
        }
      ],
      "stateMutability": "nonpayable",
      "type": "function"
    },
    {
      "inputs": [
        {
          "internalType": "address",
          "name": "sender",
          "type": "address"
        },
        {
          "internalType": "address",
          "name": "recipient",
          "type": "address"
        },
        {
          "internalType": "uint256",
          "name": "amount",
          "type": "uint256"
        }
      ],
      "name": "transferFrom",
      "outputs": [
        {
          "internalType": "bool",
          "name": "",
          "type": "bool"
        }
      ],
      "stateMutability": "nonpayable",
      "type": "function"
    },
    {
      "stateMutability": "payable",
      "type": "receive"
    },
    {
      "inputs": [],
      "name": "getAdmin",
      "outputs": [
        {
          "internalType": "address",
          "name": "",
          "type": "address"
        }
      ],
      "stateMutability": "view",
      "type": "function"
    },
    {
      "inputs": [
        {
          "internalType": "uint256",
          "name": "_newPrice",
          "type": "uint256"
        }
      ],
      "name": "setPriceToken",
      "outputs": [],
      "stateMutability": "nonpayable",
      "type": "function"
    },
    {
      "inputs": [
        {
          "internalType": "address",
          "name": "_resultContract",
          "type": "address"
        },
        {
          "internalType": "uint256",
          "name": "_endTime",
          "type": "uint256"
        },
        {
          "internalType": "uint256",
          "name": "_balance",
          "type": "uint256"
        }
      ],
      "name": "createRound",
      "outputs": [],
      "stateMutability": "nonpayable",
      "type": "function"
    },
    {
      "inputs": [
        {
          "internalType": "uint256",
          "name": "_roundId",
          "type": "uint256"
        },
        {
          "internalType": "uint256",
          "name": "_price",
          "type": "uint256"
        },
        {
          "internalType": "uint256",
          "name": "_data",
          "type": "uint256"
        }
      ],
      "name": "buyTicket",
      "outputs": [],
      "stateMutability": "nonpayable",
      "type": "function"
    },
    {
      "inputs": [
        {
          "internalType": "uint256",
          "name": "ticketId",
          "type": "uint256"
        }
      ],
      "name": "withDrawTicket",
      "outputs": [],
      "stateMutability": "nonpayable",
      "type": "function"
    },
    {
      "inputs": [],
      "name": "buyToken",
      "outputs": [],
      "stateMutability": "payable",
      "type": "function"
    }
  ],
  "bytecode": "0x60806040523480156200001157600080fd5b5060405162002334380380620023348339818101604052810190620000379190620001ed565b6040518060400160405280600481526020017f43686970000000000000000000000000000000000000000000000000000000008152506040518060400160405280600381526020017f43484900000000000000000000000000000000000000000000000000000000008152508160039080519060200190620000bb92919062000126565b508060049080519060200190620000d492919062000126565b50505033600660006101000a81548173ffffffffffffffffffffffffffffffffffffffff021916908373ffffffffffffffffffffffffffffffffffffffff1602179055508060058190555050620002a2565b828054620001349062000223565b90600052602060002090601f016020900481019282620001585760008555620001a4565b82601f106200017357805160ff1916838001178555620001a4565b82800160010185558215620001a4579182015b82811115620001a357825182559160200191906001019062000186565b5b509050620001b39190620001b7565b5090565b5b80821115620001d2576000816000905550600101620001b8565b5090565b600081519050620001e78162000288565b92915050565b6000602082840312156200020057600080fd5b60006200021084828501620001d6565b91505092915050565b6000819050919050565b600060028204905060018216806200023c57607f821691505b6020821081141562000253576200025262000259565b5b50919050565b7f4e487b7100000000000000000000000000000000000000000000000000000000600052602260045260246000fd5b620002938162000219565b81146200029f57600080fd5b50565b61208280620002b26000396000f3fe6080604052600436106101235760003560e01c80638270c41e116100a0578063a702eb1b11610064578063a702eb1b14610420578063a9059cbb14610449578063aa9ef46a14610486578063c4c6710d146104af578063dd62ed3e146104d857610132565b80638270c41e146103475780638c65c81f1461037057806395d89b41146103ae578063a457c2d7146103d9578063a48217191461041657610132565b806339509351116100e7578063395093511461023757806350b44712146102745780636e9960c3146102b457806370a08231146102df5780637b4fd96e1461031c57610132565b806306fdde031461013c578063095ea7b31461016757806318160ddd146101a457806323b872dd146101cf578063313ce5671461020c57610132565b3661013257610130610515565b005b61013a610515565b005b34801561014857600080fd5b50610151610588565b60405161015e9190611c29565b60405180910390f35b34801561017357600080fd5b5061018e60048036038101906101899190611706565b61061a565b60405161019b9190611c0e565b60405180910390f35b3480156101b057600080fd5b506101b9610638565b6040516101c69190611d4b565b60405180910390f35b3480156101db57600080fd5b506101f660048036038101906101f191906116b7565b610642565b6040516102039190611c0e565b60405180910390f35b34801561021857600080fd5b50610221610743565b60405161022e9190611dd4565b60405180910390f35b34801561024357600080fd5b5061025e60048036038101906102599190611706565b61074c565b60405161026b9190611c0e565b60405180910390f35b34801561028057600080fd5b5061029b60048036038101906102969190611791565b6107f8565b6040516102ab9493929190611d8f565b60405180910390f35b3480156102c057600080fd5b506102c9610845565b6040516102d69190611bae565b60405180910390f35b3480156102eb57600080fd5b5061030660048036038101906103019190611652565b61086f565b6040516103139190611d4b565b60405180910390f35b34801561032857600080fd5b506103316108b7565b60405161033e9190611d4b565b60405180910390f35b34801561035357600080fd5b5061036e60048036038101906103699190611791565b6108bd565b005b34801561037c57600080fd5b5061039760048036038101906103929190611791565b610921565b6040516103a5929190611d66565b60405180910390f35b3480156103ba57600080fd5b506103c3610975565b6040516103d09190611c29565b60405180910390f35b3480156103e557600080fd5b5061040060048036038101906103fb9190611706565b610a07565b60405161040d9190611c0e565b60405180910390f35b61041e610515565b005b34801561042c57600080fd5b5061044760048036038101906104429190611742565b610afb565b005b34801561045557600080fd5b50610470600480360381019061046b9190611706565b610c98565b60405161047d9190611c0e565b60405180910390f35b34801561049257600080fd5b506104ad60048036038101906104a89190611791565b610cb6565b005b3480156104bb57600080fd5b506104d660048036038101906104d191906117ba565b610cb9565b005b3480156104e457600080fd5b506104ff60048036038101906104fa919061167b565b610e81565b60405161050c9190611d4b565b60405180910390f35b60055434101561052457600080fd5b600554346105329190611e61565b6000803373ffffffffffffffffffffffffffffffffffffffff1673ffffffffffffffffffffffffffffffffffffffff168152602001908152602001600020600082825461057f9190611e0b565b92505081905550565b60606003805461059790611f4e565b80601f01602080910402602001604051908101604052809291908181526020018280546105c390611f4e565b80156106105780601f106105e557610100808354040283529160200191610610565b820191906000526020600020905b8154815290600101906020018083116105f357829003601f168201915b5050505050905090565b600061062e610627610f08565b8484610f10565b6001905092915050565b6000600254905090565b600061064f8484846110db565b6000600160008673ffffffffffffffffffffffffffffffffffffffff1673ffffffffffffffffffffffffffffffffffffffff168152602001908152602001600020600061069a610f08565b73ffffffffffffffffffffffffffffffffffffffff1673ffffffffffffffffffffffffffffffffffffffff1681526020019081526020016000205490508281101561071a576040517f08c379a000000000000000000000000000000000000000000000000000000000815260040161071190611ccb565b60405180910390fd5b61073785610726610f08565b85846107329190611e92565b610f10565b60019150509392505050565b60006012905090565b60006107ee610759610f08565b848460016000610767610f08565b73ffffffffffffffffffffffffffffffffffffffff1673ffffffffffffffffffffffffffffffffffffffff16815260200190815260200160002060008873ffffffffffffffffffffffffffffffffffffffff1673ffffffffffffffffffffffffffffffffffffffff168152602001908152602001600020546107e99190611e0b565b610f10565b6001905092915050565b6007818154811061080857600080fd5b90600052602060002090600402016000915090508060000154908060010154908060020160009054906101000a900460ff16908060030154905084565b6000600660009054906101000a900473ffffffffffffffffffffffffffffffffffffffff16905090565b60008060008373ffffffffffffffffffffffffffffffffffffffff1673ffffffffffffffffffffffffffffffffffffffff168152602001908152602001600020549050919050565b60055481565b600660009054906101000a900473ffffffffffffffffffffffffffffffffffffffff1673ffffffffffffffffffffffffffffffffffffffff163373ffffffffffffffffffffffffffffffffffffffff161461091757600080fd5b8060058190555050565b6008818154811061093157600080fd5b90600052602060002090600302016000915090508060000154908060010160009054906101000a900473ffffffffffffffffffffffffffffffffffffffff16905082565b60606004805461098490611f4e565b80601f01602080910402602001604051908101604052809291908181526020018280546109b090611f4e565b80156109fd5780601f106109d2576101008083540402835291602001916109fd565b820191906000526020600020905b8154815290600101906020018083116109e057829003601f168201915b5050505050905090565b60008060016000610a16610f08565b73ffffffffffffffffffffffffffffffffffffffff1673ffffffffffffffffffffffffffffffffffffffff16815260200190815260200160002060008573ffffffffffffffffffffffffffffffffffffffff1673ffffffffffffffffffffffffffffffffffffffff16815260200190815260200160002054905082811015610ad3576040517f08c379a0000000000000000000000000000000000000000000000000000000008152600401610aca90611d2b565b60405180910390fd5b610af0610ade610f08565b858584610aeb9190611e92565b610f10565b600191505092915050565b610b03611587565b8281600001818152505083816020019073ffffffffffffffffffffffffffffffffffffffff16908173ffffffffffffffffffffffffffffffffffffffff168152505060088190806001815401808255809150506001900390600052602060002090600302016000909190919091506000820151816000015560208201518160010160006101000a81548173ffffffffffffffffffffffffffffffffffffffff021916908373ffffffffffffffffffffffffffffffffffffffff1602179055506040820151816002019080519060200190610bde9291906115be565b50505060006001600880549050610bf59190611e92565b905033600a600083815260200190815260200160002060006101000a81548173ffffffffffffffffffffffffffffffffffffffff021916908373ffffffffffffffffffffffffffffffffffffffff160217905550610c5433828561135a565b7f48000d2cb1dc9e97966a065564e1756cf4b8ffa6b8532794e75ce81cf2fef6d333868686604051610c899493929190611bc9565b60405180910390a15050505050565b6000610cac610ca5610f08565b84846110db565b6001905092915050565b50565b610cc283611516565b610d01576040517f08c379a0000000000000000000000000000000000000000000000000000000008152600401610cf890611c8b565b60405180910390fd5b610d0c33848461135a565b600060405180608001604052808581526020018481526020016000151581526020018381525090506007819080600181540180825580915050600190039060005260206000209060040201600090919091909150600082015181600001556020820151816001015560408201518160020160006101000a81548160ff02191690831515021790555060608201518160030155505060006001600780549050610db49190611e92565b905060088581548110610df0577f4e487b7100000000000000000000000000000000000000000000000000000000600052603260045260246000fd5b906000526020600020906003020160020181908060018154018082558091505060019003906000526020600020016000909190919091505533600b600083815260200190815260200160002060006101000a81548173ffffffffffffffffffffffffffffffffffffffff021916908373ffffffffffffffffffffffffffffffffffffffff1602179055505050505050565b6000600160008473ffffffffffffffffffffffffffffffffffffffff1673ffffffffffffffffffffffffffffffffffffffff16815260200190815260200160002060008373ffffffffffffffffffffffffffffffffffffffff1673ffffffffffffffffffffffffffffffffffffffff16815260200190815260200160002054905092915050565b600033905090565b600073ffffffffffffffffffffffffffffffffffffffff168373ffffffffffffffffffffffffffffffffffffffff161415610f80576040517f08c379a0000000000000000000000000000000000000000000000000000000008152600401610f7790611d0b565b60405180910390fd5b600073ffffffffffffffffffffffffffffffffffffffff168273ffffffffffffffffffffffffffffffffffffffff161415610ff0576040517f08c379a0000000000000000000000000000000000000000000000000000000008152600401610fe790611c6b565b60405180910390fd5b80600160008573ffffffffffffffffffffffffffffffffffffffff1673ffffffffffffffffffffffffffffffffffffffff16815260200190815260200160002060008473ffffffffffffffffffffffffffffffffffffffff1673ffffffffffffffffffffffffffffffffffffffff168152602001908152602001600020819055508173ffffffffffffffffffffffffffffffffffffffff168373ffffffffffffffffffffffffffffffffffffffff167f8c5be1e5ebec7d5bd14f71427d1e84f3dd0314c0f7b2291e5b200ac8c7c3b925836040516110ce9190611d4b565b60405180910390a3505050565b600073ffffffffffffffffffffffffffffffffffffffff168373ffffffffffffffffffffffffffffffffffffffff16141561114b576040517f08c379a000000000000000000000000000000000000000000000000000000000815260040161114290611ceb565b60405180910390fd5b600073ffffffffffffffffffffffffffffffffffffffff168273ffffffffffffffffffffffffffffffffffffffff1614156111bb576040517f08c379a00000000000000000000000000000000000000000000000000000000081526004016111b290611c4b565b60405180910390fd5b6111c6838383611582565b60008060008573ffffffffffffffffffffffffffffffffffffffff1673ffffffffffffffffffffffffffffffffffffffff1681526020019081526020016000205490508181101561124c576040517f08c379a000000000000000000000000000000000000000000000000000000000815260040161124390611cab565b60405180910390fd5b81816112589190611e92565b6000808673ffffffffffffffffffffffffffffffffffffffff1673ffffffffffffffffffffffffffffffffffffffff16815260200190815260200160002081905550816000808573ffffffffffffffffffffffffffffffffffffffff1673ffffffffffffffffffffffffffffffffffffffff16815260200190815260200160002060008282546112e89190611e0b565b925050819055508273ffffffffffffffffffffffffffffffffffffffff168473ffffffffffffffffffffffffffffffffffffffff167fddf252ad1be2c89b69c2b068fc378daa952ba7f163c4a11628f55a4df523b3ef8460405161134c9190611d4b565b60405180910390a350505050565b600073ffffffffffffffffffffffffffffffffffffffff168373ffffffffffffffffffffffffffffffffffffffff1614156113ca576040517f08c379a00000000000000000000000000000000000000000000000000000000081526004016113c190611ceb565b60405180910390fd5b6113d382611516565b611412576040517f08c379a000000000000000000000000000000000000000000000000000000000815260040161140990611c8b565b60405180910390fd5b60008060008573ffffffffffffffffffffffffffffffffffffffff1673ffffffffffffffffffffffffffffffffffffffff16815260200190815260200160002054905081811015611498576040517f08c379a000000000000000000000000000000000000000000000000000000000815260040161148f90611cab565b60405180910390fd5b81816114a49190611e92565b6000808673ffffffffffffffffffffffffffffffffffffffff1673ffffffffffffffffffffffffffffffffffffffff16815260200190815260200160002081905550816009600085815260200190815260200160002060008282546115099190611e0b565b9250508190555050505050565b60008073ffffffffffffffffffffffffffffffffffffffff16600a600084815260200190815260200160002060009054906101000a900473ffffffffffffffffffffffffffffffffffffffff1673ffffffffffffffffffffffffffffffffffffffff1614159050919050565b505050565b604051806060016040528060008152602001600073ffffffffffffffffffffffffffffffffffffffff168152602001606081525090565b8280548282559060005260206000209081019282156115fa579160200282015b828111156115f95782518255916020019190600101906115de565b5b509050611607919061160b565b5090565b5b8082111561162457600081600090555060010161160c565b5090565b6000813590506116378161201e565b92915050565b60008135905061164c81612035565b92915050565b60006020828403121561166457600080fd5b600061167284828501611628565b91505092915050565b6000806040838503121561168e57600080fd5b600061169c85828601611628565b92505060206116ad85828601611628565b9150509250929050565b6000806000606084860312156116cc57600080fd5b60006116da86828701611628565b93505060206116eb86828701611628565b92505060406116fc8682870161163d565b9150509250925092565b6000806040838503121561171957600080fd5b600061172785828601611628565b92505060206117388582860161163d565b9150509250929050565b60008060006060848603121561175757600080fd5b600061176586828701611628565b93505060206117768682870161163d565b92505060406117878682870161163d565b9150509250925092565b6000602082840312156117a357600080fd5b60006117b18482850161163d565b91505092915050565b6000806000606084860312156117cf57600080fd5b60006117dd8682870161163d565b93505060206117ee8682870161163d565b92505060406117ff8682870161163d565b9150509250925092565b61181281611ec6565b82525050565b61182181611ed8565b82525050565b600061183282611def565b61183c8185611dfa565b935061184c818560208601611f1b565b6118558161200d565b840191505092915050565b600061186d602383611dfa565b91507f45524332303a207472616e7366657220746f20746865207a65726f206164647260008301527f65737300000000000000000000000000000000000000000000000000000000006020830152604082019050919050565b60006118d3602283611dfa565b91507f45524332303a20617070726f766520746f20746865207a65726f20616464726560008301527f73730000000000000000000000000000000000000000000000000000000000006020830152604082019050919050565b6000611939602483611dfa565b91507f4f70657261746f7220717565727920666f72206e6f6e6578697374656e74207260008301527f6f756e64000000000000000000000000000000000000000000000000000000006020830152604082019050919050565b600061199f602683611dfa565b91507f45524332303a207472616e7366657220616d6f756e742065786365656473206260008301527f616c616e636500000000000000000000000000000000000000000000000000006020830152604082019050919050565b6000611a05602883611dfa565b91507f45524332303a207472616e7366657220616d6f756e742065786365656473206160008301527f6c6c6f77616e63650000000000000000000000000000000000000000000000006020830152604082019050919050565b6000611a6b602583611dfa565b91507f45524332303a207472616e736665722066726f6d20746865207a65726f20616460008301527f64726573730000000000000000000000000000000000000000000000000000006020830152604082019050919050565b6000611ad1602483611dfa565b91507f45524332303a20617070726f76652066726f6d20746865207a65726f2061646460008301527f72657373000000000000000000000000000000000000000000000000000000006020830152604082019050919050565b6000611b37602583611dfa565b91507f45524332303a2064656372656173656420616c6c6f77616e63652062656c6f7760008301527f207a65726f0000000000000000000000000000000000000000000000000000006020830152604082019050919050565b611b9981611f04565b82525050565b611ba881611f0e565b82525050565b6000602082019050611bc36000830184611809565b92915050565b6000608082019050611bde6000830187611809565b611beb6020830186611809565b611bf86040830185611b90565b611c056060830184611b90565b95945050505050565b6000602082019050611c236000830184611818565b92915050565b60006020820190508181036000830152611c438184611827565b905092915050565b60006020820190508181036000830152611c6481611860565b9050919050565b60006020820190508181036000830152611c84816118c6565b9050919050565b60006020820190508181036000830152611ca48161192c565b9050919050565b60006020820190508181036000830152611cc481611992565b9050919050565b60006020820190508181036000830152611ce4816119f8565b9050919050565b60006020820190508181036000830152611d0481611a5e565b9050919050565b60006020820190508181036000830152611d2481611ac4565b9050919050565b60006020820190508181036000830152611d4481611b2a565b9050919050565b6000602082019050611d606000830184611b90565b92915050565b6000604082019050611d7b6000830185611b90565b611d886020830184611809565b9392505050565b6000608082019050611da46000830187611b90565b611db16020830186611b90565b611dbe6040830185611818565b611dcb6060830184611b90565b95945050505050565b6000602082019050611de96000830184611b9f565b92915050565b600081519050919050565b600082825260208201905092915050565b6000611e1682611f04565b9150611e2183611f04565b9250827fffffffffffffffffffffffffffffffffffffffffffffffffffffffffffffffff03821115611e5657611e55611f80565b5b828201905092915050565b6000611e6c82611f04565b9150611e7783611f04565b925082611e8757611e86611faf565b5b828204905092915050565b6000611e9d82611f04565b9150611ea883611f04565b925082821015611ebb57611eba611f80565b5b828203905092915050565b6000611ed182611ee4565b9050919050565b60008115159050919050565b600073ffffffffffffffffffffffffffffffffffffffff82169050919050565b6000819050919050565b600060ff82169050919050565b60005b83811015611f39578082015181840152602081019050611f1e565b83811115611f48576000848401525b50505050565b60006002820490506001821680611f6657607f821691505b60208210811415611f7a57611f79611fde565b5b50919050565b7f4e487b7100000000000000000000000000000000000000000000000000000000600052601160045260246000fd5b7f4e487b7100000000000000000000000000000000000000000000000000000000600052601260045260246000fd5b7f4e487b7100000000000000000000000000000000000000000000000000000000600052602260045260246000fd5b6000601f19601f8301169050919050565b61202781611ec6565b811461203257600080fd5b50565b61203e81611f04565b811461204957600080fd5b5056fea2646970667358221220de6b655499d87ed599d624c438bb8a207b7e7397dd29af878d8b48f9d216beb164736f6c63430008000033",
  "immutableReferences": {},
  "source": "// SPDX-License-Identifier: MIT\r\n\r\npragma solidity ^0.8.0;\r\n\r\nimport \"./CustomERC20.sol\";\r\n\r\nabstract contract checkResultInterface {\r\n    function checkResult(uint ticketId) external view virtual returns (int256);\r\n}\r\n\r\nabstract contract checkTicketBuyInterface {\r\n    function checkTicketBuy(uint roundId) external view virtual returns (bool);\r\n}\r\n\r\ncontract BoNhaCai is CustomERC20 {\r\n    uint256 public token_price;\r\n    address private admin; \r\n    constructor(uint256 _price) CustomERC20(\"Chip\", \"CHI\") {\r\n        admin = msg.sender;\r\n        token_price = _price;\r\n    }\r\n\r\n    struct Ticket {\r\n        uint256 value;\r\n        uint256 ticketPrice;\r\n        bool payed;\r\n        uint256 roundId;\r\n    }\r\n\r\n    struct Round {\r\n        uint256 endTime;\r\n        address resultContract;\r\n        uint256[] ticketIds;\r\n    }\r\n\r\n    Ticket[] public tickets;\r\n    Round[] public rounds;\r\n\r\n    mapping(uint256 => uint256) private _balanceOfRounds;\r\n\r\n    mapping(uint256 => address) private _roundOwners;\r\n\r\n    mapping(uint256 => address) private _ticketOwners;\r\n\r\n    event NewRound(address owner, address resultContract, uint256 endTime, uint balance);\r\n\r\n    function getAdmin() view public returns(address){\r\n        return admin;\r\n    }\r\n\r\n    function setPriceToken(uint256 _newPrice) public {\r\n        require(msg.sender == admin);\r\n        token_price = _newPrice;\r\n    }\r\n\r\n    function createRound(\r\n        address _resultContract,\r\n        uint256 _endTime,\r\n        uint256 _balance\r\n    ) external {\r\n        Round memory newRound;\r\n        newRound.endTime = _endTime;\r\n        newRound.resultContract = _resultContract;\r\n        rounds.push(newRound);\r\n        uint roundId = rounds.length-1;\r\n        _roundOwners[roundId] = msg.sender;\r\n        _transferToRound(msg.sender, roundId, _balance);\r\n        emit NewRound(msg.sender, _resultContract, _endTime, _balance);\r\n    }\r\n\r\n    function buyTicket(\r\n        uint256 _roundId,\r\n        uint256 _price,\r\n        uint256 _data\r\n    ) external {\r\n        require(_roundExists(_roundId), \"Operator query for nonexistent round\");\r\n        // require(checkTicketBuyInterface(rounds[_roundId].resultContract).checkTicketBuy(_roundId));\r\n        _transferToRound(msg.sender, _roundId, _price);\r\n        Ticket memory newTicket = Ticket(_roundId, _price, false, _data);\r\n        tickets.push(newTicket);\r\n        uint ticketId = tickets.length - 1;\r\n        rounds[_roundId].ticketIds.push(ticketId);\r\n        _ticketOwners[ticketId] = msg.sender;\r\n    }\r\n\r\n    function _transferToRound(\r\n        address _sender,\r\n        uint256 _roundId,\r\n        uint256 _amount\r\n    ) internal {\r\n        require(_sender != address(0), \"ERC20: transfer from the zero address\");\r\n        require(_roundExists(_roundId), \"Operator query for nonexistent round\");\r\n\r\n        uint256 senderBalance = _balances[_sender];\r\n        require(senderBalance >= _amount, \"ERC20: transfer amount exceeds balance\");\r\n        _balances[_sender] = senderBalance - _amount;\r\n        _balanceOfRounds[_roundId] += _amount;\r\n    }\r\n\r\n    function _transferFromRound(\r\n        address _recipient,\r\n        uint256 _roundId,\r\n        uint256 _amount\r\n    ) internal {\r\n        require(\r\n            _recipient != address(0),\r\n            \"ERC20: transfer to the zero address\"\r\n        );\r\n        require(_roundExists(_roundId), \"Operator query for nonexistent round\");\r\n\r\n        uint256 senderBalance = _balanceOfRounds[_roundId];\r\n        require(\r\n            senderBalance >= _amount,\r\n            \"ERC20: transfer amount exceeds balance\"\r\n        );\r\n        _balanceOfRounds[_roundId] = senderBalance - _amount;\r\n        _balances[_recipient] += _amount;\r\n    }\r\n\r\n    function withDrawTicket (uint ticketId) external{\r\n        \r\n    }\r\n\r\n    function _roundExists(uint256 _roundId) internal view returns (bool) {\r\n        return _roundOwners[_roundId] != address(0);\r\n    }\r\n\r\n    function _ticketExists(uint256 _roundId) internal view returns (bool) {\r\n        return _ticketOwners[_roundId] != address(0);\r\n    }\r\n\r\n    function buyToken() public payable{\r\n        require(msg.value >= token_price);\r\n        _balances[msg.sender] += (msg.value/token_price);\r\n    }\r\n\r\n    fallback () external payable{\r\n        buyToken();\r\n    }\r\n\r\n    receive() external payable {\r\n        buyToken();\r\n    }\r\n}\r\n",
  "sourcePath": "D:/roulette/lottery/contracts/BoNhaCai.sol",
  "compiler": {
    "name": "solc",
    "version": "0.8.0+commit.c7dfd78e.Emscripten.clang"
  },
  "schemaVersion": "3.3.4",
  "updatedAt": "2021-04-13T04:56:44.873Z",
  "devdoc": {
    "kind": "dev",
    "methods": {
      "allowance(address,address)": {
        "details": "See {IERC20-allowance}."
      },
      "approve(address,uint256)": {
        "details": "See {IERC20-approve}. Requirements: - `spender` cannot be the zero address."
      },
      "balanceOf(address)": {
        "details": "See {IERC20-balanceOf}."
      },
      "decimals()": {
        "details": "Returns the number of decimals used to get its user representation. For example, if `decimals` equals `2`, a balance of `505` tokens should be displayed to a user as `5,05` (`505 / 10 ** 2`). Tokens usually opt for a value of 18, imitating the relationship between Ether and Wei. This is the value {ERC20} uses, unless this function is overloaded; NOTE: This information is only used for _display_ purposes: it in no way affects any of the arithmetic of the contract, including {IERC20-balanceOf} and {IERC20-transfer}."
      },
      "decreaseAllowance(address,uint256)": {
        "details": "Atomically decreases the allowance granted to `spender` by the caller. This is an alternative to {approve} that can be used as a mitigation for problems described in {IERC20-approve}. Emits an {Approval} event indicating the updated allowance. Requirements: - `spender` cannot be the zero address. - `spender` must have allowance for the caller of at least `subtractedValue`."
      },
      "increaseAllowance(address,uint256)": {
        "details": "Atomically increases the allowance granted to `spender` by the caller. This is an alternative to {approve} that can be used as a mitigation for problems described in {IERC20-approve}. Emits an {Approval} event indicating the updated allowance. Requirements: - `spender` cannot be the zero address."
      },
      "name()": {
        "details": "Returns the name of the token."
      },
      "symbol()": {
        "details": "Returns the symbol of the token, usually a shorter version of the name."
      },
      "totalSupply()": {
        "details": "See {IERC20-totalSupply}."
      },
      "transfer(address,uint256)": {
        "details": "See {IERC20-transfer}. Requirements: - `recipient` cannot be the zero address. - the caller must have a balance of at least `amount`."
      },
      "transferFrom(address,address,uint256)": {
        "details": "See {IERC20-transferFrom}. Emits an {Approval} event indicating the updated allowance. This is not required by the EIP. See the note at the beginning of {ERC20}. Requirements: - `sender` and `recipient` cannot be the zero address. - `sender` must have a balance of at least `amount`. - the caller must have allowance for ``sender``'s tokens of at least `amount`."
      }
    },
    "version": 1
  },
  "userdoc": {
    "kind": "user",
    "methods": {},
    "version": 1
  }
}