{
  "contractName": "BoNhaCai",
  "abi": [
    {
      "inputs": [],
      "stateMutability": "nonpayable",
      "type": "constructor"
    },
    {
      "anonymous": false,
      "inputs": [
        {
          "indexed": true,
          "internalType": "address",
          "name": "owner",
          "type": "address"
        },
        {
          "indexed": true,
          "internalType": "address",
          "name": "spender",
          "type": "address"
        },
        {
          "indexed": false,
          "internalType": "uint256",
          "name": "value",
          "type": "uint256"
        }
      ],
      "name": "Approval",
      "type": "event"
    },
    {
      "anonymous": false,
      "inputs": [
        {
          "indexed": true,
          "internalType": "address",
          "name": "from",
          "type": "address"
        },
        {
          "indexed": true,
          "internalType": "address",
          "name": "to",
          "type": "address"
        },
        {
          "indexed": false,
          "internalType": "uint256",
          "name": "value",
          "type": "uint256"
        }
      ],
      "name": "Transfer",
      "type": "event"
    },
    {
      "inputs": [
        {
          "internalType": "address",
          "name": "owner",
          "type": "address"
        },
        {
          "internalType": "address",
          "name": "spender",
          "type": "address"
        }
      ],
      "name": "allowance",
      "outputs": [
        {
          "internalType": "uint256",
          "name": "",
          "type": "uint256"
        }
      ],
      "stateMutability": "view",
      "type": "function"
    },
    {
      "inputs": [
        {
          "internalType": "address",
          "name": "spender",
          "type": "address"
        },
        {
          "internalType": "uint256",
          "name": "amount",
          "type": "uint256"
        }
      ],
      "name": "approve",
      "outputs": [
        {
          "internalType": "bool",
          "name": "",
          "type": "bool"
        }
      ],
      "stateMutability": "nonpayable",
      "type": "function"
    },
    {
      "inputs": [
        {
          "internalType": "address",
          "name": "account",
          "type": "address"
        }
      ],
      "name": "balanceOf",
      "outputs": [
        {
          "internalType": "uint256",
          "name": "",
          "type": "uint256"
        }
      ],
      "stateMutability": "view",
      "type": "function"
    },
    {
      "inputs": [],
      "name": "decimals",
      "outputs": [
        {
          "internalType": "uint8",
          "name": "",
          "type": "uint8"
        }
      ],
      "stateMutability": "view",
      "type": "function"
    },
    {
      "inputs": [
        {
          "internalType": "address",
          "name": "spender",
          "type": "address"
        },
        {
          "internalType": "uint256",
          "name": "subtractedValue",
          "type": "uint256"
        }
      ],
      "name": "decreaseAllowance",
      "outputs": [
        {
          "internalType": "bool",
          "name": "",
          "type": "bool"
        }
      ],
      "stateMutability": "nonpayable",
      "type": "function"
    },
    {
      "inputs": [
        {
          "internalType": "address",
          "name": "spender",
          "type": "address"
        },
        {
          "internalType": "uint256",
          "name": "addedValue",
          "type": "uint256"
        }
      ],
      "name": "increaseAllowance",
      "outputs": [
        {
          "internalType": "bool",
          "name": "",
          "type": "bool"
        }
      ],
      "stateMutability": "nonpayable",
      "type": "function"
    },
    {
      "inputs": [],
      "name": "name",
      "outputs": [
        {
          "internalType": "string",
          "name": "",
          "type": "string"
        }
      ],
      "stateMutability": "view",
      "type": "function"
    },
    {
      "inputs": [
        {
          "internalType": "uint256",
          "name": "",
          "type": "uint256"
        }
      ],
      "name": "rounds",
      "outputs": [
        {
          "internalType": "uint256",
          "name": "endTime",
          "type": "uint256"
        },
        {
          "internalType": "address",
          "name": "resultContract",
          "type": "address"
        }
      ],
      "stateMutability": "view",
      "type": "function"
    },
    {
      "inputs": [],
      "name": "symbol",
      "outputs": [
        {
          "internalType": "string",
          "name": "",
          "type": "string"
        }
      ],
      "stateMutability": "view",
      "type": "function"
    },
    {
      "inputs": [
        {
          "internalType": "uint256",
          "name": "",
          "type": "uint256"
        }
      ],
      "name": "tickets",
      "outputs": [
        {
          "internalType": "uint256",
          "name": "value",
          "type": "uint256"
        },
        {
          "internalType": "uint256",
          "name": "ticketPrice",
          "type": "uint256"
        },
        {
          "internalType": "bool",
          "name": "payed",
          "type": "bool"
        },
        {
          "internalType": "uint256",
          "name": "roundId",
          "type": "uint256"
        }
      ],
      "stateMutability": "view",
      "type": "function"
    },
    {
      "inputs": [],
      "name": "totalSupply",
      "outputs": [
        {
          "internalType": "uint256",
          "name": "",
          "type": "uint256"
        }
      ],
      "stateMutability": "view",
      "type": "function"
    },
    {
      "inputs": [
        {
          "internalType": "address",
          "name": "recipient",
          "type": "address"
        },
        {
          "internalType": "uint256",
          "name": "amount",
          "type": "uint256"
        }
      ],
      "name": "transfer",
      "outputs": [
        {
          "internalType": "bool",
          "name": "",
          "type": "bool"
        }
      ],
      "stateMutability": "nonpayable",
      "type": "function"
    },
    {
      "inputs": [
        {
          "internalType": "address",
          "name": "sender",
          "type": "address"
        },
        {
          "internalType": "address",
          "name": "recipient",
          "type": "address"
        },
        {
          "internalType": "uint256",
          "name": "amount",
          "type": "uint256"
        }
      ],
      "name": "transferFrom",
      "outputs": [
        {
          "internalType": "bool",
          "name": "",
          "type": "bool"
        }
      ],
      "stateMutability": "nonpayable",
      "type": "function"
    },
    {
      "inputs": [
        {
          "internalType": "address",
          "name": "_resultContract",
          "type": "address"
        },
        {
          "internalType": "uint256",
          "name": "_endTime",
          "type": "uint256"
        },
        {
          "internalType": "uint256",
          "name": "_balance",
          "type": "uint256"
        }
      ],
      "name": "createRound",
      "outputs": [],
      "stateMutability": "nonpayable",
      "type": "function"
    },
    {
      "inputs": [
        {
          "internalType": "uint256",
          "name": "_roundId",
          "type": "uint256"
        },
        {
          "internalType": "uint256",
          "name": "_price",
          "type": "uint256"
        },
        {
          "internalType": "uint256",
          "name": "_data",
          "type": "uint256"
        }
      ],
      "name": "buyTicket",
      "outputs": [],
      "stateMutability": "nonpayable",
      "type": "function"
    }
  ],
  "bytecode": "0x60806040523480156200001157600080fd5b506040518060400160405280600481526020017f43686970000000000000000000000000000000000000000000000000000000008152506040518060400160405280600381526020017f4348490000000000000000000000000000000000000000000000000000000000815250816003908051906020019062000096929190620000b8565b508060049080519060200190620000af929190620000b8565b505050620001cd565b828054620000c69062000168565b90600052602060002090601f016020900481019282620000ea576000855562000136565b82601f106200010557805160ff191683800117855562000136565b8280016001018555821562000136579182015b828111156200013557825182559160200191906001019062000118565b5b50905062000145919062000149565b5090565b5b80821115620001645760008160009055506001016200014a565b5090565b600060028204905060018216806200018157607f821691505b602082108114156200019857620001976200019e565b5b50919050565b7f4e487b7100000000000000000000000000000000000000000000000000000000600052602260045260246000fd5b611c9f80620001dd6000396000f3fe608060405234801561001057600080fd5b50600436106100f55760003560e01c806370a0823111610097578063a702eb1b11610066578063a702eb1b146102c6578063a9059cbb146102e2578063c4c6710d14610312578063dd62ed3e1461032e576100f5565b806370a08231146102175780638c65c81f1461024757806395d89b4114610278578063a457c2d714610296576100f5565b806323b872dd116100d357806323b872dd14610166578063313ce5671461019657806339509351146101b457806350b44712146101e4576100f5565b806306fdde03146100fa578063095ea7b31461011857806318160ddd14610148575b600080fd5b61010261035e565b60405161010f91906118a6565b60405180910390f35b610132600480360381019061012d91906113e3565b6103f0565b60405161013f919061188b565b60405180910390f35b61015061040e565b60405161015d91906119c8565b60405180910390f35b610180600480360381019061017b9190611394565b610418565b60405161018d919061188b565b60405180910390f35b61019e610519565b6040516101ab9190611a51565b60405180910390f35b6101ce60048036038101906101c991906113e3565b610522565b6040516101db919061188b565b60405180910390f35b6101fe60048036038101906101f9919061146e565b6105ce565b60405161020e9493929190611a0c565b60405180910390f35b610231600480360381019061022c919061132f565b61061b565b60405161023e91906119c8565b60405180910390f35b610261600480360381019061025c919061146e565b610663565b60405161026f9291906119e3565b60405180910390f35b6102806106b7565b60405161028d91906118a6565b60405180910390f35b6102b060048036038101906102ab91906113e3565b610749565b6040516102bd919061188b565b60405180910390f35b6102e060048036038101906102db919061141f565b61083d565b005b6102fc60048036038101906102f791906113e3565b6109f7565b604051610309919061188b565b60405180910390f35b61032c60048036038101906103279190611497565b610a15565b005b61034860048036038101906103439190611358565b610b95565b60405161035591906119c8565b60405180910390f35b60606003805461036d90611b9a565b80601f016020809104026020016040519081016040528092919081815260200182805461039990611b9a565b80156103e65780601f106103bb576101008083540402835291602001916103e6565b820191906000526020600020905b8154815290600101906020018083116103c957829003601f168201915b5050505050905090565b60006104046103fd610c1c565b8484610c24565b6001905092915050565b6000600254905090565b6000610425848484610def565b6000600160008673ffffffffffffffffffffffffffffffffffffffff1673ffffffffffffffffffffffffffffffffffffffff1681526020019081526020016000206000610470610c1c565b73ffffffffffffffffffffffffffffffffffffffff1673ffffffffffffffffffffffffffffffffffffffff168152602001908152602001600020549050828110156104f0576040517f08c379a00000000000000000000000000000000000000000000000000000000081526004016104e790611948565b60405180910390fd5b61050d856104fc610c1c565b85846105089190611ade565b610c24565b60019150509392505050565b60006012905090565b60006105c461052f610c1c565b84846001600061053d610c1c565b73ffffffffffffffffffffffffffffffffffffffff1673ffffffffffffffffffffffffffffffffffffffff16815260200190815260200160002060008873ffffffffffffffffffffffffffffffffffffffff1673ffffffffffffffffffffffffffffffffffffffff168152602001908152602001600020546105bf9190611a88565b610c24565b6001905092915050565b600581815481106105de57600080fd5b90600052602060002090600402016000915090508060000154908060010154908060020160009054906101000a900460ff16908060030154905084565b60008060008373ffffffffffffffffffffffffffffffffffffffff1673ffffffffffffffffffffffffffffffffffffffff168152602001908152602001600020549050919050565b6006818154811061067357600080fd5b90600052602060002090600302016000915090508060000154908060010160009054906101000a900473ffffffffffffffffffffffffffffffffffffffff16905082565b6060600480546106c690611b9a565b80601f01602080910402602001604051908101604052809291908181526020018280546106f290611b9a565b801561073f5780601f106107145761010080835404028352916020019161073f565b820191906000526020600020905b81548152906001019060200180831161072257829003601f168201915b5050505050905090565b60008060016000610758610c1c565b73ffffffffffffffffffffffffffffffffffffffff1673ffffffffffffffffffffffffffffffffffffffff16815260200190815260200160002060008573ffffffffffffffffffffffffffffffffffffffff1673ffffffffffffffffffffffffffffffffffffffff16815260200190815260200160002054905082811015610815576040517f08c379a000000000000000000000000000000000000000000000000000000000815260040161080c906119a8565b60405180910390fd5b610832610820610c1c565b85858461082d9190611ade565b610c24565b600191505092915050565b600060405180606001604052808481526020018573ffffffffffffffffffffffffffffffffffffffff168152602001600067ffffffffffffffff8111156108ad577f4e487b7100000000000000000000000000000000000000000000000000000000600052604160045260246000fd5b6040519080825280602002602001820160405280156108db5781602001602082028036833780820191505090505b50815250905060068190806001815401808255809150506001900390600052602060002090600302016000909190919091506000820151816000015560208201518160010160006101000a81548173ffffffffffffffffffffffffffffffffffffffff021916908373ffffffffffffffffffffffffffffffffffffffff160217905550604082015181600201908051906020019061097a92919061129b565b505050600060016006805490506109919190611ade565b9050336008600083815260200190815260200160002060006101000a81548173ffffffffffffffffffffffffffffffffffffffff021916908373ffffffffffffffffffffffffffffffffffffffff1602179055506109f033828561106e565b5050505050565b6000610a0b610a04610c1c565b8484610def565b6001905092915050565b610a2033848461106e565b600060405180608001604052808581526020018481526020016000151581526020018381525090506005819080600181540180825580915050600190039060005260206000209060040201600090919091909150600082015181600001556020820151816001015560408201518160020160006101000a81548160ff02191690831515021790555060608201518160030155505060006001600580549050610ac89190611ade565b905060068581548110610b04577f4e487b7100000000000000000000000000000000000000000000000000000000600052603260045260246000fd5b9060005260206000209060030201600201819080600181540180825580915050600190039060005260206000200160009091909190915055336009600083815260200190815260200160002060006101000a81548173ffffffffffffffffffffffffffffffffffffffff021916908373ffffffffffffffffffffffffffffffffffffffff1602179055505050505050565b6000600160008473ffffffffffffffffffffffffffffffffffffffff1673ffffffffffffffffffffffffffffffffffffffff16815260200190815260200160002060008373ffffffffffffffffffffffffffffffffffffffff1673ffffffffffffffffffffffffffffffffffffffff16815260200190815260200160002054905092915050565b600033905090565b600073ffffffffffffffffffffffffffffffffffffffff168373ffffffffffffffffffffffffffffffffffffffff161415610c94576040517f08c379a0000000000000000000000000000000000000000000000000000000008152600401610c8b90611988565b60405180910390fd5b600073ffffffffffffffffffffffffffffffffffffffff168273ffffffffffffffffffffffffffffffffffffffff161415610d04576040517f08c379a0000000000000000000000000000000000000000000000000000000008152600401610cfb906118e8565b60405180910390fd5b80600160008573ffffffffffffffffffffffffffffffffffffffff1673ffffffffffffffffffffffffffffffffffffffff16815260200190815260200160002060008473ffffffffffffffffffffffffffffffffffffffff1673ffffffffffffffffffffffffffffffffffffffff168152602001908152602001600020819055508173ffffffffffffffffffffffffffffffffffffffff168373ffffffffffffffffffffffffffffffffffffffff167f8c5be1e5ebec7d5bd14f71427d1e84f3dd0314c0f7b2291e5b200ac8c7c3b92583604051610de291906119c8565b60405180910390a3505050565b600073ffffffffffffffffffffffffffffffffffffffff168373ffffffffffffffffffffffffffffffffffffffff161415610e5f576040517f08c379a0000000000000000000000000000000000000000000000000000000008152600401610e5690611968565b60405180910390fd5b600073ffffffffffffffffffffffffffffffffffffffff168273ffffffffffffffffffffffffffffffffffffffff161415610ecf576040517f08c379a0000000000000000000000000000000000000000000000000000000008152600401610ec6906118c8565b60405180910390fd5b610eda83838361122a565b60008060008573ffffffffffffffffffffffffffffffffffffffff1673ffffffffffffffffffffffffffffffffffffffff16815260200190815260200160002054905081811015610f60576040517f08c379a0000000000000000000000000000000000000000000000000000000008152600401610f5790611928565b60405180910390fd5b8181610f6c9190611ade565b6000808673ffffffffffffffffffffffffffffffffffffffff1673ffffffffffffffffffffffffffffffffffffffff16815260200190815260200160002081905550816000808573ffffffffffffffffffffffffffffffffffffffff1673ffffffffffffffffffffffffffffffffffffffff1681526020019081526020016000206000828254610ffc9190611a88565b925050819055508273ffffffffffffffffffffffffffffffffffffffff168473ffffffffffffffffffffffffffffffffffffffff167fddf252ad1be2c89b69c2b068fc378daa952ba7f163c4a11628f55a4df523b3ef8460405161106091906119c8565b60405180910390a350505050565b600073ffffffffffffffffffffffffffffffffffffffff168373ffffffffffffffffffffffffffffffffffffffff1614156110de576040517f08c379a00000000000000000000000000000000000000000000000000000000081526004016110d590611968565b60405180910390fd5b6110e78261122f565b611126576040517f08c379a000000000000000000000000000000000000000000000000000000000815260040161111d90611908565b60405180910390fd5b60008060008573ffffffffffffffffffffffffffffffffffffffff1673ffffffffffffffffffffffffffffffffffffffff168152602001908152602001600020549050818110156111ac576040517f08c379a00000000000000000000000000000000000000000000000000000000081526004016111a390611928565b60405180910390fd5b81816111b89190611ade565b6000808673ffffffffffffffffffffffffffffffffffffffff1673ffffffffffffffffffffffffffffffffffffffff168152602001908152602001600020819055508160076000858152602001908152602001600020600082825461121d9190611a88565b9250508190555050505050565b505050565b60008073ffffffffffffffffffffffffffffffffffffffff166008600084815260200190815260200160002060009054906101000a900473ffffffffffffffffffffffffffffffffffffffff1673ffffffffffffffffffffffffffffffffffffffff1614159050919050565b8280548282559060005260206000209081019282156112d7579160200282015b828111156112d65782518255916020019190600101906112bb565b5b5090506112e491906112e8565b5090565b5b808211156113015760008160009055506001016112e9565b5090565b60008135905061131481611c3b565b92915050565b60008135905061132981611c52565b92915050565b60006020828403121561134157600080fd5b600061134f84828501611305565b91505092915050565b6000806040838503121561136b57600080fd5b600061137985828601611305565b925050602061138a85828601611305565b9150509250929050565b6000806000606084860312156113a957600080fd5b60006113b786828701611305565b93505060206113c886828701611305565b92505060406113d98682870161131a565b9150509250925092565b600080604083850312156113f657600080fd5b600061140485828601611305565b92505060206114158582860161131a565b9150509250929050565b60008060006060848603121561143457600080fd5b600061144286828701611305565b93505060206114538682870161131a565b92505060406114648682870161131a565b9150509250925092565b60006020828403121561148057600080fd5b600061148e8482850161131a565b91505092915050565b6000806000606084860312156114ac57600080fd5b60006114ba8682870161131a565b93505060206114cb8682870161131a565b92505060406114dc8682870161131a565b9150509250925092565b6114ef81611b12565b82525050565b6114fe81611b24565b82525050565b600061150f82611a6c565b6115198185611a77565b9350611529818560208601611b67565b61153281611c2a565b840191505092915050565b600061154a602383611a77565b91507f45524332303a207472616e7366657220746f20746865207a65726f206164647260008301527f65737300000000000000000000000000000000000000000000000000000000006020830152604082019050919050565b60006115b0602283611a77565b91507f45524332303a20617070726f766520746f20746865207a65726f20616464726560008301527f73730000000000000000000000000000000000000000000000000000000000006020830152604082019050919050565b6000611616602483611a77565b91507f4f70657261746f7220717565727920666f72206e6f6e6578697374656e74207260008301527f6f756e64000000000000000000000000000000000000000000000000000000006020830152604082019050919050565b600061167c602683611a77565b91507f45524332303a207472616e7366657220616d6f756e742065786365656473206260008301527f616c616e636500000000000000000000000000000000000000000000000000006020830152604082019050919050565b60006116e2602883611a77565b91507f45524332303a207472616e7366657220616d6f756e742065786365656473206160008301527f6c6c6f77616e63650000000000000000000000000000000000000000000000006020830152604082019050919050565b6000611748602583611a77565b91507f45524332303a207472616e736665722066726f6d20746865207a65726f20616460008301527f64726573730000000000000000000000000000000000000000000000000000006020830152604082019050919050565b60006117ae602483611a77565b91507f45524332303a20617070726f76652066726f6d20746865207a65726f2061646460008301527f72657373000000000000000000000000000000000000000000000000000000006020830152604082019050919050565b6000611814602583611a77565b91507f45524332303a2064656372656173656420616c6c6f77616e63652062656c6f7760008301527f207a65726f0000000000000000000000000000000000000000000000000000006020830152604082019050919050565b61187681611b50565b82525050565b61188581611b5a565b82525050565b60006020820190506118a060008301846114f5565b92915050565b600060208201905081810360008301526118c08184611504565b905092915050565b600060208201905081810360008301526118e18161153d565b9050919050565b60006020820190508181036000830152611901816115a3565b9050919050565b6000602082019050818103600083015261192181611609565b9050919050565b600060208201905081810360008301526119418161166f565b9050919050565b60006020820190508181036000830152611961816116d5565b9050919050565b600060208201905081810360008301526119818161173b565b9050919050565b600060208201905081810360008301526119a1816117a1565b9050919050565b600060208201905081810360008301526119c181611807565b9050919050565b60006020820190506119dd600083018461186d565b92915050565b60006040820190506119f8600083018561186d565b611a0560208301846114e6565b9392505050565b6000608082019050611a21600083018761186d565b611a2e602083018661186d565b611a3b60408301856114f5565b611a48606083018461186d565b95945050505050565b6000602082019050611a66600083018461187c565b92915050565b600081519050919050565b600082825260208201905092915050565b6000611a9382611b50565b9150611a9e83611b50565b9250827fffffffffffffffffffffffffffffffffffffffffffffffffffffffffffffffff03821115611ad357611ad2611bcc565b5b828201905092915050565b6000611ae982611b50565b9150611af483611b50565b925082821015611b0757611b06611bcc565b5b828203905092915050565b6000611b1d82611b30565b9050919050565b60008115159050919050565b600073ffffffffffffffffffffffffffffffffffffffff82169050919050565b6000819050919050565b600060ff82169050919050565b60005b83811015611b85578082015181840152602081019050611b6a565b83811115611b94576000848401525b50505050565b60006002820490506001821680611bb257607f821691505b60208210811415611bc657611bc5611bfb565b5b50919050565b7f4e487b7100000000000000000000000000000000000000000000000000000000600052601160045260246000fd5b7f4e487b7100000000000000000000000000000000000000000000000000000000600052602260045260246000fd5b6000601f19601f8301169050919050565b611c4481611b12565b8114611c4f57600080fd5b50565b611c5b81611b50565b8114611c6657600080fd5b5056fea2646970667358221220e603ec00185b4ed770f65c70676ec642a198c1c7aed4f14e95022b9d968a59f864736f6c63430008000033",
  "immutableReferences": {},
  "source": "// SPDX-License-Identifier: MIT\n\npragma solidity ^0.8.0;\n\nimport \"./CustomERC20.sol\";\n\nabstract contract checkResultInterface {\n    function checkResult() external view virtual returns (int256);\n}\n\nabstract contract checkTicketBuyInterface {\n    function checkTicketBuy() external view virtual returns (bool);\n}\n\ncontract BoNhaCai is CustomERC20 {\n    constructor() CustomERC20(\"Chip\", \"CHI\") {}\n\n    struct Ticket {\n        uint256 value;\n        uint256 ticketPrice;\n        bool payed;\n        uint256 roundId;\n    }\n\n    struct Round {\n        uint256 endTime;\n        address resultContract;\n        uint256[] ticketIds;\n    }\n\n    Ticket[] public tickets;\n    Round[] public rounds;\n\n    mapping(uint256 => uint256) private _balanceOfRounds;\n\n    mapping(uint256 => address) private _roundOwners;\n\n    mapping(uint256 => address) private _ticketOwners;\n\n    function createRound(\n        address _resultContract,\n        uint256 _endTime,\n        uint256 _balance\n    ) external {\n        Round memory newRound = Round(_endTime, _resultContract, new uint256[](0));\n        rounds.push(newRound);\n        uint roundId = rounds.length-1;\n        _roundOwners[roundId] = msg.sender;\n        _transferToRound(msg.sender, roundId, _balance);\n    }\n\n    function buyTicket(\n        uint256 _roundId,\n        uint256 _price,\n        uint256 _data\n    ) external {\n\n        _transferToRound(msg.sender, _roundId, _price);\n        Ticket memory newTicket = Ticket(_roundId, _price, false, _data);\n        tickets.push(newTicket);\n        uint ticketId = tickets.length - 1;\n        rounds[_roundId].ticketIds.push(ticketId);\n        _ticketOwners[ticketId] = msg.sender;\n    }\n\n    function _transferToRound(\n        address _sender,\n        uint256 _roundId,\n        uint256 _amount\n    ) internal {\n        require(_sender != address(0), \"ERC20: transfer from the zero address\");\n        require(_roundExists(_roundId), \"Operator query for nonexistent round\");\n\n        uint256 senderBalance = _balances[_sender];\n        require(senderBalance >= _amount, \"ERC20: transfer amount exceeds balance\");\n        _balances[_sender] = senderBalance - _amount;\n        _balanceOfRounds[_roundId] += _amount;\n    }\n\n    function _transferFromRound(\n        address _recipient,\n        uint256 _roundId,\n        uint256 _amount\n    ) internal {\n        require(\n            _recipient != address(0),\n            \"ERC20: transfer to the zero address\"\n        );\n        require(_roundExists(_roundId), \"Operator query for nonexistent round\");\n\n        uint256 senderBalance = _balanceOfRounds[_roundId];\n        require(\n            senderBalance >= _amount,\n            \"ERC20: transfer amount exceeds balance\"\n        );\n        _balanceOfRounds[_roundId] = senderBalance - _amount;\n        _balances[_recipient] += _amount;\n    }\n\n    function _roundExists(uint256 _roundId) internal view returns (bool) {\n        return _roundOwners[_roundId] != address(0);\n    }\n\n    function _ticketExists(uint256 _roundId) internal view returns (bool) {\n        return _ticketOwners[_roundId] != address(0);\n    }\n}\n",
  "sourcePath": "/home/ubuntu/dapp/Rolette_Blockchain/lottery/contracts/BoNhaCai.sol",
  "compiler": {
    "name": "solc",
    "version": "0.8.0+commit.c7dfd78e.Emscripten.clang"
  },
  "schemaVersion": "3.3.4",
  "updatedAt": "2021-04-12T13:31:32.139Z",
  "devdoc": {
    "kind": "dev",
    "methods": {
      "allowance(address,address)": {
        "details": "See {IERC20-allowance}."
      },
      "approve(address,uint256)": {
        "details": "See {IERC20-approve}. Requirements: - `spender` cannot be the zero address."
      },
      "balanceOf(address)": {
        "details": "See {IERC20-balanceOf}."
      },
      "decimals()": {
        "details": "Returns the number of decimals used to get its user representation. For example, if `decimals` equals `2`, a balance of `505` tokens should be displayed to a user as `5,05` (`505 / 10 ** 2`). Tokens usually opt for a value of 18, imitating the relationship between Ether and Wei. This is the value {ERC20} uses, unless this function is overloaded; NOTE: This information is only used for _display_ purposes: it in no way affects any of the arithmetic of the contract, including {IERC20-balanceOf} and {IERC20-transfer}."
      },
      "decreaseAllowance(address,uint256)": {
        "details": "Atomically decreases the allowance granted to `spender` by the caller. This is an alternative to {approve} that can be used as a mitigation for problems described in {IERC20-approve}. Emits an {Approval} event indicating the updated allowance. Requirements: - `spender` cannot be the zero address. - `spender` must have allowance for the caller of at least `subtractedValue`."
      },
      "increaseAllowance(address,uint256)": {
        "details": "Atomically increases the allowance granted to `spender` by the caller. This is an alternative to {approve} that can be used as a mitigation for problems described in {IERC20-approve}. Emits an {Approval} event indicating the updated allowance. Requirements: - `spender` cannot be the zero address."
      },
      "name()": {
        "details": "Returns the name of the token."
      },
      "symbol()": {
        "details": "Returns the symbol of the token, usually a shorter version of the name."
      },
      "totalSupply()": {
        "details": "See {IERC20-totalSupply}."
      },
      "transfer(address,uint256)": {
        "details": "See {IERC20-transfer}. Requirements: - `recipient` cannot be the zero address. - the caller must have a balance of at least `amount`."
      },
      "transferFrom(address,address,uint256)": {
        "details": "See {IERC20-transferFrom}. Emits an {Approval} event indicating the updated allowance. This is not required by the EIP. See the note at the beginning of {ERC20}. Requirements: - `sender` and `recipient` cannot be the zero address. - `sender` must have a balance of at least `amount`. - the caller must have allowance for ``sender``'s tokens of at least `amount`."
      }
    },
    "version": 1
  },
  "userdoc": {
    "kind": "user",
    "methods": {},
    "version": 1
  }
}