{
  "contractName": "BoNhaCai",
  "abi": [
    {
      "inputs": [
        {
          "internalType": "uint256",
          "name": "_price",
          "type": "uint256"
        }
      ],
      "stateMutability": "nonpayable",
      "type": "constructor"
    },
    {
      "anonymous": false,
      "inputs": [
        {
          "indexed": true,
          "internalType": "address",
          "name": "owner",
          "type": "address"
        },
        {
          "indexed": true,
          "internalType": "address",
          "name": "spender",
          "type": "address"
        },
        {
          "indexed": false,
          "internalType": "uint256",
          "name": "value",
          "type": "uint256"
        }
      ],
      "name": "Approval",
      "type": "event"
    },
    {
      "anonymous": false,
      "inputs": [
        {
          "indexed": false,
          "internalType": "address",
          "name": "owner",
          "type": "address"
        },
        {
          "indexed": false,
          "internalType": "address",
          "name": "resultContract",
          "type": "address"
        },
        {
          "indexed": false,
          "internalType": "uint256",
          "name": "endTime",
          "type": "uint256"
        },
        {
          "indexed": false,
          "internalType": "uint256",
          "name": "balance",
          "type": "uint256"
        }
      ],
      "name": "NewRound",
      "type": "event"
    },
    {
      "anonymous": false,
      "inputs": [
        {
          "indexed": true,
          "internalType": "address",
          "name": "from",
          "type": "address"
        },
        {
          "indexed": true,
          "internalType": "address",
          "name": "to",
          "type": "address"
        },
        {
          "indexed": false,
          "internalType": "uint256",
          "name": "value",
          "type": "uint256"
        }
      ],
      "name": "Transfer",
      "type": "event"
    },
    {
      "stateMutability": "payable",
      "type": "fallback",
      "payable": true
    },
    {
      "inputs": [
        {
          "internalType": "address",
          "name": "owner",
          "type": "address"
        },
        {
          "internalType": "address",
          "name": "spender",
          "type": "address"
        }
      ],
      "name": "allowance",
      "outputs": [
        {
          "internalType": "uint256",
          "name": "",
          "type": "uint256"
        }
      ],
      "stateMutability": "view",
      "type": "function",
      "constant": true
    },
    {
      "inputs": [
        {
          "internalType": "address",
          "name": "spender",
          "type": "address"
        },
        {
          "internalType": "uint256",
          "name": "amount",
          "type": "uint256"
        }
      ],
      "name": "approve",
      "outputs": [
        {
          "internalType": "bool",
          "name": "",
          "type": "bool"
        }
      ],
      "stateMutability": "nonpayable",
      "type": "function"
    },
    {
      "inputs": [
        {
          "internalType": "address",
          "name": "account",
          "type": "address"
        }
      ],
      "name": "balanceOf",
      "outputs": [
        {
          "internalType": "uint256",
          "name": "",
          "type": "uint256"
        }
      ],
      "stateMutability": "view",
      "type": "function",
      "constant": true
    },
    {
      "inputs": [],
      "name": "decimals",
      "outputs": [
        {
          "internalType": "uint8",
          "name": "",
          "type": "uint8"
        }
      ],
      "stateMutability": "view",
      "type": "function",
      "constant": true
    },
    {
      "inputs": [
        {
          "internalType": "address",
          "name": "spender",
          "type": "address"
        },
        {
          "internalType": "uint256",
          "name": "subtractedValue",
          "type": "uint256"
        }
      ],
      "name": "decreaseAllowance",
      "outputs": [
        {
          "internalType": "bool",
          "name": "",
          "type": "bool"
        }
      ],
      "stateMutability": "nonpayable",
      "type": "function"
    },
    {
      "inputs": [
        {
          "internalType": "address",
          "name": "spender",
          "type": "address"
        },
        {
          "internalType": "uint256",
          "name": "addedValue",
          "type": "uint256"
        }
      ],
      "name": "increaseAllowance",
      "outputs": [
        {
          "internalType": "bool",
          "name": "",
          "type": "bool"
        }
      ],
      "stateMutability": "nonpayable",
      "type": "function"
    },
    {
      "inputs": [],
      "name": "name",
      "outputs": [
        {
          "internalType": "string",
          "name": "",
          "type": "string"
        }
      ],
      "stateMutability": "view",
      "type": "function",
      "constant": true
    },
    {
      "inputs": [
        {
          "internalType": "uint256",
          "name": "",
          "type": "uint256"
        }
      ],
      "name": "rounds",
      "outputs": [
        {
          "internalType": "uint256",
          "name": "data",
          "type": "uint256"
        },
        {
          "internalType": "uint256",
          "name": "endTime",
          "type": "uint256"
        },
        {
          "internalType": "address",
          "name": "resultContract",
          "type": "address"
        }
      ],
      "stateMutability": "view",
      "type": "function",
      "constant": true
    },
    {
      "inputs": [],
      "name": "symbol",
      "outputs": [
        {
          "internalType": "string",
          "name": "",
          "type": "string"
        }
      ],
      "stateMutability": "view",
      "type": "function",
      "constant": true
    },
    {
      "inputs": [
        {
          "internalType": "uint256",
          "name": "",
          "type": "uint256"
        }
      ],
      "name": "tickets",
      "outputs": [
        {
          "internalType": "uint256",
          "name": "data",
          "type": "uint256"
        },
        {
          "internalType": "uint256",
          "name": "ticketPrice",
          "type": "uint256"
        },
        {
          "internalType": "uint256",
          "name": "roundId",
          "type": "uint256"
        },
        {
          "internalType": "bool",
          "name": "used",
          "type": "bool"
        }
      ],
      "stateMutability": "view",
      "type": "function",
      "constant": true
    },
    {
      "inputs": [],
      "name": "token_price",
      "outputs": [
        {
          "internalType": "uint256",
          "name": "",
          "type": "uint256"
        }
      ],
      "stateMutability": "view",
      "type": "function",
      "constant": true
    },
    {
      "inputs": [],
      "name": "totalSupply",
      "outputs": [
        {
          "internalType": "uint256",
          "name": "",
          "type": "uint256"
        }
      ],
      "stateMutability": "view",
      "type": "function",
      "constant": true
    },
    {
      "inputs": [
        {
          "internalType": "address",
          "name": "recipient",
          "type": "address"
        },
        {
          "internalType": "uint256",
          "name": "amount",
          "type": "uint256"
        }
      ],
      "name": "transfer",
      "outputs": [
        {
          "internalType": "bool",
          "name": "",
          "type": "bool"
        }
      ],
      "stateMutability": "nonpayable",
      "type": "function"
    },
    {
      "inputs": [
        {
          "internalType": "address",
          "name": "sender",
          "type": "address"
        },
        {
          "internalType": "address",
          "name": "recipient",
          "type": "address"
        },
        {
          "internalType": "uint256",
          "name": "amount",
          "type": "uint256"
        }
      ],
      "name": "transferFrom",
      "outputs": [
        {
          "internalType": "bool",
          "name": "",
          "type": "bool"
        }
      ],
      "stateMutability": "nonpayable",
      "type": "function"
    },
    {
      "stateMutability": "payable",
      "type": "receive",
      "payable": true
    },
    {
      "inputs": [],
      "name": "getAdmin",
      "outputs": [
        {
          "internalType": "address",
          "name": "",
          "type": "address"
        }
      ],
      "stateMutability": "view",
      "type": "function",
      "constant": true
    },
    {
      "inputs": [
        {
          "internalType": "uint256",
          "name": "_newPrice",
          "type": "uint256"
        }
      ],
      "name": "setPriceToken",
      "outputs": [],
      "stateMutability": "nonpayable",
      "type": "function"
    },
    {
      "inputs": [
        {
          "internalType": "uint256",
          "name": "_roundId",
          "type": "uint256"
        }
      ],
      "name": "getRound",
      "outputs": [
        {
          "internalType": "uint256",
          "name": "",
          "type": "uint256"
        },
        {
          "internalType": "uint256",
          "name": "",
          "type": "uint256"
        },
        {
          "internalType": "address",
          "name": "",
          "type": "address"
        },
        {
          "internalType": "uint256[]",
          "name": "",
          "type": "uint256[]"
        }
      ],
      "stateMutability": "view",
      "type": "function",
      "constant": true
    },
    {
      "inputs": [
        {
          "internalType": "uint256",
          "name": "_ticketId",
          "type": "uint256"
        }
      ],
      "name": "getTicket",
      "outputs": [
        {
          "internalType": "uint256",
          "name": "",
          "type": "uint256"
        },
        {
          "internalType": "uint256",
          "name": "",
          "type": "uint256"
        },
        {
          "internalType": "uint256",
          "name": "",
          "type": "uint256"
        },
        {
          "internalType": "bool",
          "name": "",
          "type": "bool"
        }
      ],
      "stateMutability": "view",
      "type": "function",
      "constant": true
    },
    {
      "inputs": [
        {
          "internalType": "uint256",
          "name": "_data",
          "type": "uint256"
        },
        {
          "internalType": "address",
          "name": "_resultContract",
          "type": "address"
        },
        {
          "internalType": "uint256",
          "name": "_endTime",
          "type": "uint256"
        },
        {
          "internalType": "uint256",
          "name": "_balance",
          "type": "uint256"
        }
      ],
      "name": "createRound",
      "outputs": [],
      "stateMutability": "nonpayable",
      "type": "function"
    },
    {
      "inputs": [
        {
          "internalType": "uint256",
          "name": "_data",
          "type": "uint256"
        },
        {
          "internalType": "uint256",
          "name": "_price",
          "type": "uint256"
        },
        {
          "internalType": "uint256",
          "name": "_roundId",
          "type": "uint256"
        }
      ],
      "name": "buyTicket",
      "outputs": [],
      "stateMutability": "nonpayable",
      "type": "function"
    },
    {
      "inputs": [
        {
          "internalType": "uint256",
          "name": "ticketId",
          "type": "uint256"
        }
      ],
      "name": "withDrawTicket",
      "outputs": [],
      "stateMutability": "nonpayable",
      "type": "function"
    },
    {
      "inputs": [
        {
          "internalType": "uint256",
          "name": "roundId",
          "type": "uint256"
        }
      ],
      "name": "sumOfWinnerChipOfRound",
      "outputs": [
        {
          "internalType": "uint256",
          "name": "",
          "type": "uint256"
        }
      ],
      "stateMutability": "view",
      "type": "function",
      "constant": true
    },
    {
      "inputs": [
        {
          "internalType": "uint256",
          "name": "roundId",
          "type": "uint256"
        }
      ],
      "name": "withDrawRound",
      "outputs": [],
      "stateMutability": "nonpayable",
      "type": "function"
    },
    {
      "inputs": [],
      "name": "buyToken",
      "outputs": [],
      "stateMutability": "payable",
      "type": "function",
      "payable": true
    },
    {
      "inputs": [
        {
          "internalType": "uint256",
          "name": "roundId",
          "type": "uint256"
        }
      ],
      "name": "balanceOfRound",
      "outputs": [
        {
          "internalType": "uint256",
          "name": "",
          "type": "uint256"
        }
      ],
      "stateMutability": "view",
      "type": "function",
      "constant": true
    },
    {
      "inputs": [
        {
          "internalType": "uint256",
          "name": "ticketId",
          "type": "uint256"
        }
      ],
      "name": "ticketToOwner",
      "outputs": [
        {
          "internalType": "address",
          "name": "",
          "type": "address"
        }
      ],
      "stateMutability": "view",
      "type": "function",
      "constant": true
    },
    {
      "inputs": [],
      "name": "ownerToTickets",
      "outputs": [
        {
          "internalType": "uint256[]",
          "name": "",
          "type": "uint256[]"
        }
      ],
      "stateMutability": "view",
      "type": "function",
      "constant": true
    },
    {
      "inputs": [
        {
          "internalType": "uint256",
          "name": "roundId",
          "type": "uint256"
        }
      ],
      "name": "roundToOwner",
      "outputs": [
        {
          "internalType": "address",
          "name": "",
          "type": "address"
        }
      ],
      "stateMutability": "view",
      "type": "function",
      "constant": true
    },
    {
      "inputs": [],
      "name": "ownerToRounds",
      "outputs": [
        {
          "internalType": "uint256[]",
          "name": "",
          "type": "uint256[]"
        }
      ],
      "stateMutability": "view",
      "type": "function",
      "constant": true
    }
  ],
  "bytecode": "0x60806040523480156200001157600080fd5b5060405162003a4b38038062003a4b8339818101604052810190620000379190620001f5565b6040518060400160405280600481526020017f43686970000000000000000000000000000000000000000000000000000000008152506040518060400160405280600381526020017f43484900000000000000000000000000000000000000000000000000000000008152508160039080519060200190620000bb9291906200012e565b508060049080519060200190620000d49291906200012e565b505050600160058190555033600760006101000a81548173ffffffffffffffffffffffffffffffffffffffff021916908373ffffffffffffffffffffffffffffffffffffffff1602179055508060068190555050620002aa565b8280546200013c906200022b565b90600052602060002090601f016020900481019282620001605760008555620001ac565b82601f106200017b57805160ff1916838001178555620001ac565b82800160010185558215620001ac579182015b82811115620001ab5782518255916020019190600101906200018e565b5b509050620001bb9190620001bf565b5090565b5b80821115620001da576000816000905550600101620001c0565b5090565b600081519050620001ef8162000290565b92915050565b6000602082840312156200020857600080fd5b60006200021884828501620001de565b91505092915050565b6000819050919050565b600060028204905060018216806200024457607f821691505b602082108114156200025b576200025a62000261565b5b50919050565b7f4e487b7100000000000000000000000000000000000000000000000000000000600052602260045260246000fd5b6200029b8162000221565b8114620002a757600080fd5b50565b61379180620002ba6000396000f3fe6080604052600436106101c65760003560e01c806381d89b34116100f7578063a482171911610095578063dd62ed3e11610064578063dd62ed3e146106de578063e149fac21461071b578063e2bae2f314610758578063e479ee7b14610783576101d5565b8063a482171914610645578063a9059cbb1461064f578063aa9ef46a1461068c578063c4c6710d146106b5576101d5565b80638c65c81f116100d15780638c65c81f1461055e5780638f1327c01461059d57806395d89b41146105dd578063a457c2d714610608576101d5565b806381d89b34146104e15780638270c41e1461050c578063852bfc0314610535576101d5565b8063378f636e116101645780636e9960c31161013e5780636e9960c31461040e57806370a08231146104395780637b4fd96e146104765780637dc379fa146104a1576101d5565b8063378f636e14610354578063395093511461039157806350b44712146103ce576101d5565b806323b872dd116101a057806323b872dd1461027257806327f64634146102af5780632b08e824146102ec578063313ce56714610329576101d5565b806306fdde03146101df578063095ea7b31461020a57806318160ddd14610247576101d5565b366101d5576101d36107ac565b005b6101dd6107ac565b005b3480156101eb57600080fd5b506101f461081f565b60405161020191906131fc565b60405180910390f35b34801561021657600080fd5b50610231600480360381019061022c9190612b8c565b6108b1565b60405161023e91906131e1565b60405180910390f35b34801561025357600080fd5b5061025c6108cf565b604051610269919061333e565b60405180910390f35b34801561027e57600080fd5b5061029960048036038101906102949190612b3d565b6108d9565b6040516102a691906131e1565b60405180910390f35b3480156102bb57600080fd5b506102d660048036038101906102d19190612bf1565b6109da565b6040516102e3919061333e565b60405180910390f35b3480156102f857600080fd5b50610313600480360381019061030e9190612bf1565b6109f7565b604051610320919061315f565b60405180910390f35b34801561033557600080fd5b5061033e610a34565b60405161034b919061344a565b60405180910390f35b34801561036057600080fd5b5061037b60048036038101906103769190612bf1565b610a3d565b604051610388919061333e565b60405180910390f35b34801561039d57600080fd5b506103b860048036038101906103b39190612b8c565b610d38565b6040516103c591906131e1565b60405180910390f35b3480156103da57600080fd5b506103f560048036038101906103f09190612bf1565b610de4565b6040516104059493929190613405565b60405180910390f35b34801561041a57600080fd5b50610423610e31565b604051610430919061315f565b60405180910390f35b34801561044557600080fd5b50610460600480360381019061045b9190612ad8565b610e5b565b60405161046d919061333e565b60405180910390f35b34801561048257600080fd5b5061048b610ea3565b604051610498919061333e565b60405180910390f35b3480156104ad57600080fd5b506104c860048036038101906104c39190612bf1565b610ea9565b6040516104d89493929190613405565b60405180910390f35b3480156104ed57600080fd5b506104f661100d565b60405161050391906131bf565b60405180910390f35b34801561051857600080fd5b50610533600480360381019061052e9190612bf1565b611170565b005b34801561054157600080fd5b5061055c60048036038101906105579190612bf1565b6111d4565b005b34801561056a57600080fd5b5061058560048036038101906105809190612bf1565b6112de565b60405161059493929190613382565b60405180910390f35b3480156105a957600080fd5b506105c460048036038101906105bf9190612bf1565b611338565b6040516105d494939291906133b9565b60405180910390f35b3480156105e957600080fd5b506105f2611501565b6040516105ff91906131fc565b60405180910390f35b34801561061457600080fd5b5061062f600480360381019061062a9190612b8c565b611593565b60405161063c91906131e1565b60405180910390f35b61064d6107ac565b005b34801561065b57600080fd5b5061067660048036038101906106719190612b8c565b611687565b60405161068391906131e1565b60405180910390f35b34801561069857600080fd5b506106b360048036038101906106ae9190612bf1565b6116a5565b005b3480156106c157600080fd5b506106dc60048036038101906106d79190612ca6565b6119c5565b005b3480156106ea57600080fd5b5061070560048036038101906107009190612b01565b611c8c565b604051610712919061333e565b60405180910390f35b34801561072757600080fd5b50610742600480360381019061073d9190612bf1565b611d13565b60405161074f919061315f565b60405180910390f35b34801561076457600080fd5b5061076d611d50565b60405161077a91906131bf565b60405180910390f35b34801561078f57600080fd5b506107aa60048036038101906107a59190612c43565b611eb3565b005b6006543410156107bb57600080fd5b600654346107c99190613510565b6000803373ffffffffffffffffffffffffffffffffffffffff1673ffffffffffffffffffffffffffffffffffffffff168152602001908152602001600020600082825461081691906134ba565b92505081905550565b60606003805461082e906135fd565b80601f016020809104026020016040519081016040528092919081815260200182805461085a906135fd565b80156108a75780601f1061087c576101008083540402835291602001916108a7565b820191906000526020600020905b81548152906001019060200180831161088a57829003601f168201915b5050505050905090565b60006108c56108be6120f9565b8484612101565b6001905092915050565b6000600254905090565b60006108e68484846122cc565b6000600160008673ffffffffffffffffffffffffffffffffffffffff1673ffffffffffffffffffffffffffffffffffffffff16815260200190815260200160002060006109316120f9565b73ffffffffffffffffffffffffffffffffffffffff1673ffffffffffffffffffffffffffffffffffffffff168152602001908152602001600020549050828110156109b1576040517f08c379a00000000000000000000000000000000000000000000000000000000081526004016109a89061329e565b60405180910390fd5b6109ce856109bd6120f9565b85846109c99190613541565b612101565b60019150509392505050565b6000600a6000838152602001908152602001600020549050919050565b6000600c600083815260200190815260200160002060009054906101000a900473ffffffffffffffffffffffffffffffffffffffff169050919050565b60006012905090565b6000806000905060008060098581548110610a81577f4e487b7100000000000000000000000000000000000000000000000000000000600052603260045260246000fd5b906000526020600020906004020160020160009054906101000a900473ffffffffffffffffffffffffffffffffffffffff1690505b60098581548110610af0577f4e487b7100000000000000000000000000000000000000000000000000000000600052603260045260246000fd5b906000526020600020906004020160030180549050821015610d2d57600860098681548110610b48577f4e487b7100000000000000000000000000000000000000000000000000000000600052603260045260246000fd5b90600052602060002090600402016003018381548110610b91577f4e487b7100000000000000000000000000000000000000000000000000000000600052603260045260246000fd5b906000526020600020015481548110610bd3577f4e487b7100000000000000000000000000000000000000000000000000000000600052603260045260246000fd5b906000526020600020906004020160030160009054906101000a900460ff16610d1a578073ffffffffffffffffffffffffffffffffffffffff1663e9f9d28b60098781548110610c4c577f4e487b7100000000000000000000000000000000000000000000000000000000600052603260045260246000fd5b90600052602060002090600402016003018481548110610c95577f4e487b7100000000000000000000000000000000000000000000000000000000600052603260045260246000fd5b90600052602060002001546040518263ffffffff1660e01b8152600401610cbc919061333e565b60206040518083038186803b158015610cd457600080fd5b505afa158015610ce8573d6000803e3d6000fd5b505050506040513d601f19601f82011682018060405250810190610d0c9190612c1a565b83610d1791906134ba565b92505b8180610d259061362f565b925050610ab6565b829350505050919050565b6000610dda610d456120f9565b848460016000610d536120f9565b73ffffffffffffffffffffffffffffffffffffffff1673ffffffffffffffffffffffffffffffffffffffff16815260200190815260200160002060008873ffffffffffffffffffffffffffffffffffffffff1673ffffffffffffffffffffffffffffffffffffffff16815260200190815260200160002054610dd591906134ba565b612101565b6001905092915050565b60088181548110610df457600080fd5b90600052602060002090600402016000915090508060000154908060010154908060020154908060030160009054906101000a900460ff16905084565b6000600760009054906101000a900473ffffffffffffffffffffffffffffffffffffffff16905090565b60008060008373ffffffffffffffffffffffffffffffffffffffff1673ffffffffffffffffffffffffffffffffffffffff168152602001908152602001600020549050919050565b60065481565b600080600080610eb88561254b565b610ec157600080fd5b60088581548110610efb577f4e487b7100000000000000000000000000000000000000000000000000000000600052603260045260246000fd5b90600052602060002090600402016000015460088681548110610f47577f4e487b7100000000000000000000000000000000000000000000000000000000600052603260045260246000fd5b90600052602060002090600402016001015460088781548110610f93577f4e487b7100000000000000000000000000000000000000000000000000000000600052603260045260246000fd5b90600052602060002090600402016002015460088881548110610fdf577f4e487b7100000000000000000000000000000000000000000000000000000000600052603260045260246000fd5b906000526020600020906004020160030160009054906101000a900460ff1693509350935093509193509193565b6060600080600060088054905067ffffffffffffffff811115611059577f4e487b7100000000000000000000000000000000000000000000000000000000600052604160045260246000fd5b6040519080825280602002602001820160405280156110875781602001602082028036833780820191505090505b5090505b600880549050831015611167573373ffffffffffffffffffffffffffffffffffffffff16600c600085815260200190815260200160002060009054906101000a900473ffffffffffffffffffffffffffffffffffffffff1673ffffffffffffffffffffffffffffffffffffffff1614156111545782818381518110611139577f4e487b7100000000000000000000000000000000000000000000000000000000600052603260045260246000fd5b60200260200101818152505081806111509061362f565b9250505b828061115f9061362f565b93505061108b565b80935050505090565b600760009054906101000a900473ffffffffffffffffffffffffffffffffffffffff1673ffffffffffffffffffffffffffffffffffffffff163373ffffffffffffffffffffffffffffffffffffffff16146111ca57600080fd5b8060068190555050565b6002600554141561121a576040517f08c379a0000000000000000000000000000000000000000000000000000000008152600401611211906132fe565b60405180910390fd5b60026005819055503373ffffffffffffffffffffffffffffffffffffffff16600b600083815260200190815260200160002060009054906101000a900473ffffffffffffffffffffffffffffffffffffffff1673ffffffffffffffffffffffffffffffffffffffff161461128d57600080fd5b6000600a600083815260200190815260200160002054905060006112b083610a3d565b9050808211156112d1576112d0338483856112cb9190613541565b6125b7565b5b5050600160058190555050565b600981815481106112ee57600080fd5b90600052602060002090600402016000915090508060000154908060010154908060020160009054906101000a900473ffffffffffffffffffffffffffffffffffffffff16905083565b6000806000606061134885612748565b61135157600080fd5b6009858154811061138b577f4e487b7100000000000000000000000000000000000000000000000000000000600052603260045260246000fd5b906000526020600020906004020160000154600986815481106113d7577f4e487b7100000000000000000000000000000000000000000000000000000000600052603260045260246000fd5b90600052602060002090600402016001015460098781548110611423577f4e487b7100000000000000000000000000000000000000000000000000000000600052603260045260246000fd5b906000526020600020906004020160020160009054906101000a900473ffffffffffffffffffffffffffffffffffffffff166009888154811061148f577f4e487b7100000000000000000000000000000000000000000000000000000000600052603260045260246000fd5b9060005260206000209060040201600301808054806020026020016040519081016040528092919081815260200182805480156114eb57602002820191906000526020600020905b8154815260200190600101908083116114d7575b5050505050905093509350935093509193509193565b606060048054611510906135fd565b80601f016020809104026020016040519081016040528092919081815260200182805461153c906135fd565b80156115895780601f1061155e57610100808354040283529160200191611589565b820191906000526020600020905b81548152906001019060200180831161156c57829003601f168201915b5050505050905090565b600080600160006115a26120f9565b73ffffffffffffffffffffffffffffffffffffffff1673ffffffffffffffffffffffffffffffffffffffff16815260200190815260200160002060008573ffffffffffffffffffffffffffffffffffffffff1673ffffffffffffffffffffffffffffffffffffffff1681526020019081526020016000205490508281101561165f576040517f08c379a00000000000000000000000000000000000000000000000000000000081526004016116569061331e565b60405180910390fd5b61167c61166a6120f9565b8585846116779190613541565b612101565b600191505092915050565b600061169b6116946120f9565b84846122cc565b6001905092915050565b600260055414156116eb576040517f08c379a00000000000000000000000000000000000000000000000000000000081526004016116e2906132fe565b60405180910390fd5b60026005819055503373ffffffffffffffffffffffffffffffffffffffff16600c600083815260200190815260200160002060009054906101000a900473ffffffffffffffffffffffffffffffffffffffff1673ffffffffffffffffffffffffffffffffffffffff161461175e57600080fd5b60088181548110611798577f4e487b7100000000000000000000000000000000000000000000000000000000600052603260045260246000fd5b906000526020600020906004020160030160009054906101000a900460ff16156117c157600080fd5b6000600882815481106117fd577f4e487b7100000000000000000000000000000000000000000000000000000000600052603260045260246000fd5b906000526020600020906004020160020154905060006009828154811061184d577f4e487b7100000000000000000000000000000000000000000000000000000000600052603260045260246000fd5b906000526020600020906004020160020160009054906101000a900473ffffffffffffffffffffffffffffffffffffffff1673ffffffffffffffffffffffffffffffffffffffff1663e9f9d28b846040518263ffffffff1660e01b81526004016118b7919061333e565b60206040518083038186803b1580156118cf57600080fd5b505afa1580156118e3573d6000803e3d6000fd5b505050506040513d601f19601f820116820180604052508101906119079190612c1a565b905060008114156119205761191b836127b4565b6119b8565b6000600a600084815260200190815260200160002054905080821061194f5761194a3384846125b7565b6119ad565b60008114611963576119623384836125b7565b5b6119ac600b600085815260200190815260200160002060009054906101000a900473ffffffffffffffffffffffffffffffffffffffff163384846119a79190613541565b612101565b5b6119b6846127b4565b505b5050600160058190555050565b6119ce81612748565b611a0d576040517f08c379a0000000000000000000000000000000000000000000000000000000008152600401611a049061325e565b60405180910390fd5b60098181548110611a47577f4e487b7100000000000000000000000000000000000000000000000000000000600052603260045260246000fd5b906000526020600020906004020160020160009054906101000a900473ffffffffffffffffffffffffffffffffffffffff1673ffffffffffffffffffffffffffffffffffffffff1663d6b2bbf482856040518363ffffffff1660e01b8152600401611ab3929190613359565b60206040518083038186803b158015611acb57600080fd5b505afa158015611adf573d6000803e3d6000fd5b505050506040513d601f19601f82011682018060405250810190611b039190612bc8565b611b0c57600080fd5b611b1733828461281b565b60006040518060800160405280858152602001848152602001838152602001600015158152509050600881908060018154018082558091505060019003906000526020600020906004020160009091909190915060008201518160000155602082015181600101556040820151816002015560608201518160030160006101000a81548160ff021916908315150217905550505060006001600880549050611bbf9190613541565b905060098381548110611bfb577f4e487b7100000000000000000000000000000000000000000000000000000000600052603260045260246000fd5b906000526020600020906004020160030181908060018154018082558091505060019003906000526020600020016000909190919091505533600c600083815260200190815260200160002060006101000a81548173ffffffffffffffffffffffffffffffffffffffff021916908373ffffffffffffffffffffffffffffffffffffffff1602179055505050505050565b6000600160008473ffffffffffffffffffffffffffffffffffffffff1673ffffffffffffffffffffffffffffffffffffffff16815260200190815260200160002060008373ffffffffffffffffffffffffffffffffffffffff1673ffffffffffffffffffffffffffffffffffffffff16815260200190815260200160002054905092915050565b6000600b600083815260200190815260200160002060009054906101000a900473ffffffffffffffffffffffffffffffffffffffff169050919050565b6060600080600060098054905067ffffffffffffffff811115611d9c577f4e487b7100000000000000000000000000000000000000000000000000000000600052604160045260246000fd5b604051908082528060200260200182016040528015611dca5781602001602082028036833780820191505090505b5090505b600980549050831015611eaa573373ffffffffffffffffffffffffffffffffffffffff16600b600085815260200190815260200160002060009054906101000a900473ffffffffffffffffffffffffffffffffffffffff1673ffffffffffffffffffffffffffffffffffffffff161415611e975782818381518110611e7c577f4e487b7100000000000000000000000000000000000000000000000000000000600052603260045260246000fd5b6020026020010181815250508180611e939061362f565b9250505b8280611ea29061362f565b935050611dce565b80935050505090565b8273ffffffffffffffffffffffffffffffffffffffff1663a713100d85846040518363ffffffff1660e01b8152600401611eee929190613359565b60206040518083038186803b158015611f0657600080fd5b505afa158015611f1a573d6000803e3d6000fd5b505050506040513d601f19601f82011682018060405250810190611f3e9190612bc8565b611f4757600080fd5b611f4f6129dc565b8281602001818152505083816040019073ffffffffffffffffffffffffffffffffffffffff16908173ffffffffffffffffffffffffffffffffffffffff1681525050848160000181815250506009819080600181540180825580915050600190039060005260206000209060040201600090919091909150600082015181600001556020820151816001015560408201518160020160006101000a81548173ffffffffffffffffffffffffffffffffffffffff021916908373ffffffffffffffffffffffffffffffffffffffff160217905550606082015181600301908051906020019061203e929190612a1a565b505050600060016009805490506120559190613541565b905033600b600083815260200190815260200160002060006101000a81548173ffffffffffffffffffffffffffffffffffffffff021916908373ffffffffffffffffffffffffffffffffffffffff1602179055506120b433828561281b565b7f48000d2cb1dc9e97966a065564e1756cf4b8ffa6b8532794e75ce81cf2fef6d3338686866040516120e9949392919061317a565b60405180910390a1505050505050565b600033905090565b600073ffffffffffffffffffffffffffffffffffffffff168373ffffffffffffffffffffffffffffffffffffffff161415612171576040517f08c379a0000000000000000000000000000000000000000000000000000000008152600401612168906132de565b60405180910390fd5b600073ffffffffffffffffffffffffffffffffffffffff168273ffffffffffffffffffffffffffffffffffffffff1614156121e1576040517f08c379a00000000000000000000000000000000000000000000000000000000081526004016121d89061323e565b60405180910390fd5b80600160008573ffffffffffffffffffffffffffffffffffffffff1673ffffffffffffffffffffffffffffffffffffffff16815260200190815260200160002060008473ffffffffffffffffffffffffffffffffffffffff1673ffffffffffffffffffffffffffffffffffffffff168152602001908152602001600020819055508173ffffffffffffffffffffffffffffffffffffffff168373ffffffffffffffffffffffffffffffffffffffff167f8c5be1e5ebec7d5bd14f71427d1e84f3dd0314c0f7b2291e5b200ac8c7c3b925836040516122bf919061333e565b60405180910390a3505050565b600073ffffffffffffffffffffffffffffffffffffffff168373ffffffffffffffffffffffffffffffffffffffff16141561233c576040517f08c379a0000000000000000000000000000000000000000000000000000000008152600401612333906132be565b60405180910390fd5b600073ffffffffffffffffffffffffffffffffffffffff168273ffffffffffffffffffffffffffffffffffffffff1614156123ac576040517f08c379a00000000000000000000000000000000000000000000000000000000081526004016123a39061321e565b60405180910390fd5b6123b78383836129d7565b60008060008573ffffffffffffffffffffffffffffffffffffffff1673ffffffffffffffffffffffffffffffffffffffff1681526020019081526020016000205490508181101561243d576040517f08c379a00000000000000000000000000000000000000000000000000000000081526004016124349061327e565b60405180910390fd5b81816124499190613541565b6000808673ffffffffffffffffffffffffffffffffffffffff1673ffffffffffffffffffffffffffffffffffffffff16815260200190815260200160002081905550816000808573ffffffffffffffffffffffffffffffffffffffff1673ffffffffffffffffffffffffffffffffffffffff16815260200190815260200160002060008282546124d991906134ba565b925050819055508273ffffffffffffffffffffffffffffffffffffffff168473ffffffffffffffffffffffffffffffffffffffff167fddf252ad1be2c89b69c2b068fc378daa952ba7f163c4a11628f55a4df523b3ef8460405161253d919061333e565b60405180910390a350505050565b60008073ffffffffffffffffffffffffffffffffffffffff16600c600084815260200190815260200160002060009054906101000a900473ffffffffffffffffffffffffffffffffffffffff1673ffffffffffffffffffffffffffffffffffffffff1614159050919050565b600073ffffffffffffffffffffffffffffffffffffffff168373ffffffffffffffffffffffffffffffffffffffff161415612627576040517f08c379a000000000000000000000000000000000000000000000000000000000815260040161261e9061321e565b60405180910390fd5b61263082612748565b61266f576040517f08c379a00000000000000000000000000000000000000000000000000000000081526004016126669061325e565b60405180910390fd5b6000600a6000848152602001908152602001600020549050818110156126ca576040517f08c379a00000000000000000000000000000000000000000000000000000000081526004016126c19061327e565b60405180910390fd5b81816126d69190613541565b600a600085815260200190815260200160002081905550816000808673ffffffffffffffffffffffffffffffffffffffff1673ffffffffffffffffffffffffffffffffffffffff168152602001908152602001600020600082825461273b91906134ba565b9250508190555050505050565b60008073ffffffffffffffffffffffffffffffffffffffff16600b600084815260200190815260200160002060009054906101000a900473ffffffffffffffffffffffffffffffffffffffff1673ffffffffffffffffffffffffffffffffffffffff1614159050919050565b6001600882815481106127f0577f4e487b7100000000000000000000000000000000000000000000000000000000600052603260045260246000fd5b906000526020600020906004020160030160006101000a81548160ff02191690831515021790555050565b600073ffffffffffffffffffffffffffffffffffffffff168373ffffffffffffffffffffffffffffffffffffffff16141561288b576040517f08c379a0000000000000000000000000000000000000000000000000000000008152600401612882906132be565b60405180910390fd5b61289482612748565b6128d3576040517f08c379a00000000000000000000000000000000000000000000000000000000081526004016128ca9061325e565b60405180910390fd5b60008060008573ffffffffffffffffffffffffffffffffffffffff1673ffffffffffffffffffffffffffffffffffffffff16815260200190815260200160002054905081811015612959576040517f08c379a00000000000000000000000000000000000000000000000000000000081526004016129509061327e565b60405180910390fd5b81816129659190613541565b6000808673ffffffffffffffffffffffffffffffffffffffff1673ffffffffffffffffffffffffffffffffffffffff1681526020019081526020016000208190555081600a600085815260200190815260200160002060008282546129ca91906134ba565b9250508190555050505050565b505050565b60405180608001604052806000815260200160008152602001600073ffffffffffffffffffffffffffffffffffffffff168152602001606081525090565b828054828255906000526020600020908101928215612a56579160200282015b82811115612a55578251825591602001919060010190612a3a565b5b509050612a639190612a67565b5090565b5b80821115612a80576000816000905550600101612a68565b5090565b600081359050612a9381613716565b92915050565b600081519050612aa88161372d565b92915050565b600081359050612abd81613744565b92915050565b600081519050612ad281613744565b92915050565b600060208284031215612aea57600080fd5b6000612af884828501612a84565b91505092915050565b60008060408385031215612b1457600080fd5b6000612b2285828601612a84565b9250506020612b3385828601612a84565b9150509250929050565b600080600060608486031215612b5257600080fd5b6000612b6086828701612a84565b9350506020612b7186828701612a84565b9250506040612b8286828701612aae565b9150509250925092565b60008060408385031215612b9f57600080fd5b6000612bad85828601612a84565b9250506020612bbe85828601612aae565b9150509250929050565b600060208284031215612bda57600080fd5b6000612be884828501612a99565b91505092915050565b600060208284031215612c0357600080fd5b6000612c1184828501612aae565b91505092915050565b600060208284031215612c2c57600080fd5b6000612c3a84828501612ac3565b91505092915050565b60008060008060808587031215612c5957600080fd5b6000612c6787828801612aae565b9450506020612c7887828801612a84565b9350506040612c8987828801612aae565b9250506060612c9a87828801612aae565b91505092959194509250565b600080600060608486031215612cbb57600080fd5b6000612cc986828701612aae565b9350506020612cda86828701612aae565b9250506040612ceb86828701612aae565b9150509250925092565b6000612d018383613132565b60208301905092915050565b612d1681613575565b82525050565b6000612d2782613475565b612d318185613498565b9350612d3c83613465565b8060005b83811015612d6d578151612d548882612cf5565b9750612d5f8361348b565b925050600181019050612d40565b5085935050505092915050565b612d8381613587565b82525050565b6000612d9482613480565b612d9e81856134a9565b9350612dae8185602086016135ca565b612db781613705565b840191505092915050565b6000612dcf6023836134a9565b91507f45524332303a207472616e7366657220746f20746865207a65726f206164647260008301527f65737300000000000000000000000000000000000000000000000000000000006020830152604082019050919050565b6000612e356022836134a9565b91507f45524332303a20617070726f766520746f20746865207a65726f20616464726560008301527f73730000000000000000000000000000000000000000000000000000000000006020830152604082019050919050565b6000612e9b6024836134a9565b91507f4f70657261746f7220717565727920666f72206e6f6e6578697374656e74207260008301527f6f756e64000000000000000000000000000000000000000000000000000000006020830152604082019050919050565b6000612f016026836134a9565b91507f45524332303a207472616e7366657220616d6f756e742065786365656473206260008301527f616c616e636500000000000000000000000000000000000000000000000000006020830152604082019050919050565b6000612f676028836134a9565b91507f45524332303a207472616e7366657220616d6f756e742065786365656473206160008301527f6c6c6f77616e63650000000000000000000000000000000000000000000000006020830152604082019050919050565b6000612fcd6025836134a9565b91507f45524332303a207472616e736665722066726f6d20746865207a65726f20616460008301527f64726573730000000000000000000000000000000000000000000000000000006020830152604082019050919050565b60006130336024836134a9565b91507f45524332303a20617070726f76652066726f6d20746865207a65726f2061646460008301527f72657373000000000000000000000000000000000000000000000000000000006020830152604082019050919050565b6000613099601f836134a9565b91507f5265656e7472616e637947756172643a207265656e7472616e742063616c6c006000830152602082019050919050565b60006130d96025836134a9565b91507f45524332303a2064656372656173656420616c6c6f77616e63652062656c6f7760008301527f207a65726f0000000000000000000000000000000000000000000000000000006020830152604082019050919050565b61313b816135b3565b82525050565b61314a816135b3565b82525050565b613159816135bd565b82525050565b60006020820190506131746000830184612d0d565b92915050565b600060808201905061318f6000830187612d0d565b61319c6020830186612d0d565b6131a96040830185613141565b6131b66060830184613141565b95945050505050565b600060208201905081810360008301526131d98184612d1c565b905092915050565b60006020820190506131f66000830184612d7a565b92915050565b600060208201905081810360008301526132168184612d89565b905092915050565b6000602082019050818103600083015261323781612dc2565b9050919050565b6000602082019050818103600083015261325781612e28565b9050919050565b6000602082019050818103600083015261327781612e8e565b9050919050565b6000602082019050818103600083015261329781612ef4565b9050919050565b600060208201905081810360008301526132b781612f5a565b9050919050565b600060208201905081810360008301526132d781612fc0565b9050919050565b600060208201905081810360008301526132f781613026565b9050919050565b600060208201905081810360008301526133178161308c565b9050919050565b60006020820190508181036000830152613337816130cc565b9050919050565b60006020820190506133536000830184613141565b92915050565b600060408201905061336e6000830185613141565b61337b6020830184613141565b9392505050565b60006060820190506133976000830186613141565b6133a46020830185613141565b6133b16040830184612d0d565b949350505050565b60006080820190506133ce6000830187613141565b6133db6020830186613141565b6133e86040830185612d0d565b81810360608301526133fa8184612d1c565b905095945050505050565b600060808201905061341a6000830187613141565b6134276020830186613141565b6134346040830185613141565b6134416060830184612d7a565b95945050505050565b600060208201905061345f6000830184613150565b92915050565b6000819050602082019050919050565b600081519050919050565b600081519050919050565b6000602082019050919050565b600082825260208201905092915050565b600082825260208201905092915050565b60006134c5826135b3565b91506134d0836135b3565b9250827fffffffffffffffffffffffffffffffffffffffffffffffffffffffffffffffff0382111561350557613504613678565b5b828201905092915050565b600061351b826135b3565b9150613526836135b3565b925082613536576135356136a7565b5b828204905092915050565b600061354c826135b3565b9150613557836135b3565b92508282101561356a57613569613678565b5b828203905092915050565b600061358082613593565b9050919050565b60008115159050919050565b600073ffffffffffffffffffffffffffffffffffffffff82169050919050565b6000819050919050565b600060ff82169050919050565b60005b838110156135e85780820151818401526020810190506135cd565b838111156135f7576000848401525b50505050565b6000600282049050600182168061361557607f821691505b60208210811415613629576136286136d6565b5b50919050565b600061363a826135b3565b91507fffffffffffffffffffffffffffffffffffffffffffffffffffffffffffffffff82141561366d5761366c613678565b5b600182019050919050565b7f4e487b7100000000000000000000000000000000000000000000000000000000600052601160045260246000fd5b7f4e487b7100000000000000000000000000000000000000000000000000000000600052601260045260246000fd5b7f4e487b7100000000000000000000000000000000000000000000000000000000600052602260045260246000fd5b6000601f19601f8301169050919050565b61371f81613575565b811461372a57600080fd5b50565b61373681613587565b811461374157600080fd5b50565b61374d816135b3565b811461375857600080fd5b5056fea2646970667358221220e094859e6cd0c51fd4e5acde25f02359923f01c11ab5dca5cb0025e730c45a1964736f6c63430008000033",
  "immutableReferences": {},
  "source": "// SPDX-License-Identifier: MIT\r\n\r\npragma solidity ^0.8.0;\r\n\r\nimport \"./CustomERC20.sol\";\r\nimport \"../node_modules/@openzeppelin/contracts/security/ReentrancyGuard.sol\";\r\n\r\n\r\n\r\nabstract contract checkResultInterface {\r\n    function checkResult(uint ticketId) public view virtual returns (uint256);\r\n}\r\n\r\nabstract contract checkTicketBuyInterface {\r\n    function checkTicketBuy(uint roundId, uint256 _data) public view virtual returns (bool);\r\n}\r\n\r\nabstract contract checkRoundCreateInterface {\r\n    function checkRoundCreate(uint256 _data, uint _endtime) public view virtual returns (bool);\r\n}\r\n\r\ncontract BoNhaCai is CustomERC20, ReentrancyGuard{\r\n    uint256 public token_price;\r\n    address private admin;\r\n    \r\n    constructor(uint256 _price) CustomERC20(\"Chip\", \"CHI\") {\r\n        admin = msg.sender;\r\n        token_price = _price;\r\n    }\r\n\r\n    struct Ticket {\r\n        uint256 data;\r\n        uint256 ticketPrice;\r\n        uint256 roundId;\r\n        bool used;\r\n    }\r\n\r\n    struct Round {\r\n        uint256 data;\r\n        uint256 endTime;\r\n        address resultContract;\r\n        uint256[] ticketIds;\r\n    }\r\n\r\n    Ticket[] public tickets;\r\n    Round[] public rounds;\r\n\r\n    mapping(uint256 => uint256) private _balanceOfRounds;\r\n\r\n    mapping(uint256 => address) private _roundOwners;\r\n\r\n    mapping(uint256 => address) private _ticketOwners;\r\n\r\n    event NewRound(address owner, address resultContract, uint256 endTime, uint balance);\r\n\r\n    function getAdmin() view public returns(address){\r\n        return admin;\r\n    }\r\n\r\n    function setPriceToken(uint256 _newPrice) public {\r\n        require(msg.sender == admin);\r\n        token_price = _newPrice;\r\n    }\r\n\r\n    function getRound(uint256 _roundId) public view returns(uint256 , uint256 , address , uint256[] memory) {    \r\n        require(_roundExists(_roundId));    \r\n        return (rounds[_roundId].data, rounds[_roundId].endTime, rounds[_roundId].resultContract, rounds[_roundId].ticketIds);\r\n    } \r\n\r\n    function getTicket(uint256 _ticketId) public view returns(uint256 , uint256 , uint256 , bool){\r\n        require(_ticketExists(_ticketId));\r\n        return (tickets[_ticketId].data, tickets[_ticketId].ticketPrice, tickets[_ticketId].roundId, tickets[_ticketId].used);\r\n    }\r\n\r\n    function createRound(\r\n        uint256 _data,\r\n        address _resultContract,\r\n        uint256 _endTime,\r\n        uint256 _balance\r\n    ) external {\r\n        require(checkRoundCreateInterface(_resultContract).checkRoundCreate(_data, _endTime));\r\n        Round memory newRound;\r\n        newRound.endTime = _endTime;\r\n        newRound.resultContract = _resultContract;\r\n        newRound.data = _data;\r\n        rounds.push(newRound);\r\n        uint roundId = rounds.length-1;\r\n        _roundOwners[roundId] = msg.sender;\r\n        _transferToRound(msg.sender, roundId, _balance);\r\n        emit NewRound(msg.sender, _resultContract, _endTime, _balance);\r\n    }\r\n\r\n    function buyTicket(   \r\n        uint256 _data,\r\n        uint256 _price,\r\n        uint256 _roundId\r\n    ) external {\r\n        require(_roundExists(_roundId), \"Operator query for nonexistent round\");\r\n        require(checkTicketBuyInterface(rounds[_roundId].resultContract).checkTicketBuy(_roundId, _data));\r\n        _transferToRound(msg.sender, _roundId, _price);\r\n        Ticket memory newTicket = Ticket(_data, _price, _roundId, false);\r\n        tickets.push(newTicket);\r\n        uint ticketId = tickets.length - 1;\r\n        rounds[_roundId].ticketIds.push(ticketId);\r\n        _ticketOwners[ticketId] = msg.sender;\r\n    }\r\n\r\n    function _transferToRound(\r\n        address _sender,\r\n        uint256 _roundId,\r\n        uint256 _amount\r\n    ) internal {\r\n        require(_sender != address(0), \"ERC20: transfer from the zero address\");\r\n        require(_roundExists(_roundId), \"Operator query for nonexistent round\");\r\n\r\n        uint256 senderBalance = _balances[_sender];\r\n        require(senderBalance >= _amount, \"ERC20: transfer amount exceeds balance\");\r\n        _balances[_sender] = senderBalance - _amount;\r\n        _balanceOfRounds[_roundId] += _amount;\r\n    }\r\n\r\n    function _transferFromRound(\r\n        address _recipient,\r\n        uint256 _roundId,\r\n        uint256 _amount\r\n    ) internal {\r\n        require(\r\n            _recipient != address(0),\r\n            \"ERC20: transfer to the zero address\"\r\n        );\r\n        require(_roundExists(_roundId), \"Operator query for nonexistent round\");\r\n\r\n        uint256 senderBalance = _balanceOfRounds[_roundId];\r\n        require(\r\n            senderBalance >= _amount,\r\n            \"ERC20: transfer amount exceeds balance\"\r\n        );\r\n        _balanceOfRounds[_roundId] = senderBalance - _amount;\r\n        _balances[_recipient] += _amount;\r\n    }\r\n\r\n    function withDrawTicket (uint ticketId) external nonReentrant{\r\n        require(_ticketOwners[ticketId]==msg.sender);\r\n        require(!tickets[ticketId].used);\r\n        uint256 roundId = tickets[ticketId].roundId;\r\n        uint256 winChip;\r\n        winChip = checkResultInterface(rounds[roundId].resultContract).checkResult(ticketId);\r\n        if(winChip == 0){\r\n            _disableTicket(ticketId);\r\n        }\r\n        else{\r\n            uint256 roundBalance = _balanceOfRounds[roundId];\r\n            if(winChip >= roundBalance){\r\n                _transferFromRound(msg.sender, roundId, winChip);\r\n            }\r\n            else{\r\n                if(roundBalance!=0){\r\n                    _transferFromRound(msg.sender, roundId, roundBalance);\r\n                }              \r\n                _approve(_roundOwners[roundId], msg.sender, roundBalance-winChip);\r\n            }\r\n            _disableTicket(ticketId);\r\n        }\r\n    }\r\n\r\n    function sumOfWinnerChipOfRound(uint roundId) view public returns (uint256){\r\n        uint sumOfWinChip = 0;\r\n        uint i = 0;\r\n        address resultContract = rounds[roundId].resultContract;\r\n        for(i;i<rounds[roundId].ticketIds.length;i++){\r\n            if(!tickets[rounds[roundId].ticketIds[i]].used)\r\n                sumOfWinChip += checkResultInterface(resultContract).checkResult(rounds[roundId].ticketIds[i]);\r\n        }\r\n        return sumOfWinChip;\r\n    }\r\n\r\n    function withDrawRound(uint256 roundId) external nonReentrant{\r\n        require(_roundOwners[roundId] == msg.sender);\r\n        uint256 balance = _balanceOfRounds[roundId];\r\n        uint256 sumOfWinChip = sumOfWinnerChipOfRound(roundId);\r\n        if(balance > sumOfWinChip){\r\n            _transferFromRound(msg.sender, roundId, balance - sumOfWinChip);\r\n        }\r\n    }\r\n\r\n    function _roundExists(uint256 _roundId) internal view returns (bool) {\r\n        return _roundOwners[_roundId] != address(0);\r\n    }\r\n\r\n    function _ticketExists(uint256 _ticketId) internal view returns (bool) {\r\n        return _ticketOwners[_ticketId] != address(0);\r\n    }\r\n\r\n    function buyToken() public payable{\r\n        require(msg.value >= token_price);\r\n        _balances[msg.sender] += (msg.value/token_price);\r\n    }\r\n\r\n    function balanceOfRound(uint roundId) public view returns(uint256){\r\n        return _balanceOfRounds[roundId];\r\n    }\r\n\r\n    function ticketToOwner(uint ticketId) public view returns(address) {\r\n        return _ticketOwners[ticketId];\r\n    }\r\n\r\n    function ownerToTickets() public view returns(uint256[] memory){\r\n        uint i = 0;\r\n        uint j = 0;\r\n        uint256[] memory ticketIds = new uint256[](tickets.length);\r\n        for(i;i<tickets.length;i++){\r\n            if(_ticketOwners[i]==msg.sender){\r\n                ticketIds[j] = i;\r\n                j++;\r\n            }\r\n        }\r\n        return ticketIds;\r\n    }\r\n\r\n    function roundToOwner(uint roundId) public view returns(address){\r\n        return _roundOwners[roundId];\r\n    }\r\n\r\n    function ownerToRounds() public view returns(uint256[] memory){\r\n        uint i = 0;\r\n        uint j = 0;\r\n        uint256[] memory roundIds = new uint256[](rounds.length);\r\n        for(i;i<rounds.length;i++){\r\n            if(_roundOwners[i]==msg.sender){\r\n                roundIds[j] = i;\r\n                j++;\r\n            }\r\n        }\r\n        return roundIds;\r\n    }\r\n\r\n    function _disableTicket(uint256 ticketId) private {\r\n        tickets[ticketId].used = true;\r\n    }\r\n\r\n    fallback () external payable{\r\n        buyToken();\r\n    }\r\n\r\n    receive() external payable {\r\n        buyToken();\r\n    }\r\n}\r\n",
  "sourcePath": "D:\\roulette\\lottery\\contracts\\BoNhaCai.sol",
  "compiler": {
    "name": "solc",
    "version": "0.8.0+commit.c7dfd78e.Emscripten.clang"
  },
  "schemaVersion": "3.3.4",
  "updatedAt": "2021-04-14T10:29:37.465Z",
  "networkType": "ethereum",
  "devdoc": {
    "kind": "dev",
    "methods": {
      "allowance(address,address)": {
        "details": "See {IERC20-allowance}."
      },
      "approve(address,uint256)": {
        "details": "See {IERC20-approve}. Requirements: - `spender` cannot be the zero address."
      },
      "balanceOf(address)": {
        "details": "See {IERC20-balanceOf}."
      },
      "decimals()": {
        "details": "Returns the number of decimals used to get its user representation. For example, if `decimals` equals `2`, a balance of `505` tokens should be displayed to a user as `5,05` (`505 / 10 ** 2`). Tokens usually opt for a value of 18, imitating the relationship between Ether and Wei. This is the value {ERC20} uses, unless this function is overloaded; NOTE: This information is only used for _display_ purposes: it in no way affects any of the arithmetic of the contract, including {IERC20-balanceOf} and {IERC20-transfer}."
      },
      "decreaseAllowance(address,uint256)": {
        "details": "Atomically decreases the allowance granted to `spender` by the caller. This is an alternative to {approve} that can be used as a mitigation for problems described in {IERC20-approve}. Emits an {Approval} event indicating the updated allowance. Requirements: - `spender` cannot be the zero address. - `spender` must have allowance for the caller of at least `subtractedValue`."
      },
      "increaseAllowance(address,uint256)": {
        "details": "Atomically increases the allowance granted to `spender` by the caller. This is an alternative to {approve} that can be used as a mitigation for problems described in {IERC20-approve}. Emits an {Approval} event indicating the updated allowance. Requirements: - `spender` cannot be the zero address."
      },
      "name()": {
        "details": "Returns the name of the token."
      },
      "symbol()": {
        "details": "Returns the symbol of the token, usually a shorter version of the name."
      },
      "totalSupply()": {
        "details": "See {IERC20-totalSupply}."
      },
      "transfer(address,uint256)": {
        "details": "See {IERC20-transfer}. Requirements: - `recipient` cannot be the zero address. - the caller must have a balance of at least `amount`."
      },
      "transferFrom(address,address,uint256)": {
        "details": "See {IERC20-transferFrom}. Emits an {Approval} event indicating the updated allowance. This is not required by the EIP. See the note at the beginning of {ERC20}. Requirements: - `sender` and `recipient` cannot be the zero address. - `sender` must have a balance of at least `amount`. - the caller must have allowance for ``sender``'s tokens of at least `amount`."
      }
    },
    "version": 1
  },
  "userdoc": {
    "kind": "user",
    "methods": {},
    "version": 1
  }
}