{
  "contractName": "BoNhaCai",
  "abi": [
    {
      "inputs": [],
      "stateMutability": "nonpayable",
      "type": "constructor"
    },
    {
      "anonymous": false,
      "inputs": [
        {
          "indexed": true,
          "internalType": "address",
          "name": "owner",
          "type": "address"
        },
        {
          "indexed": true,
          "internalType": "address",
          "name": "spender",
          "type": "address"
        },
        {
          "indexed": false,
          "internalType": "uint256",
          "name": "value",
          "type": "uint256"
        }
      ],
      "name": "Approval",
      "type": "event"
    },
    {
      "anonymous": false,
      "inputs": [
        {
          "indexed": false,
          "internalType": "address",
          "name": "owner",
          "type": "address"
        },
        {
          "indexed": false,
          "internalType": "address",
          "name": "resultContract",
          "type": "address"
        },
        {
          "indexed": false,
          "internalType": "uint256",
          "name": "endTime",
          "type": "uint256"
        },
        {
          "indexed": false,
          "internalType": "uint256",
          "name": "balance",
          "type": "uint256"
        }
      ],
      "name": "NewRound",
      "type": "event"
    },
    {
      "anonymous": false,
      "inputs": [
        {
          "indexed": true,
          "internalType": "address",
          "name": "from",
          "type": "address"
        },
        {
          "indexed": true,
          "internalType": "address",
          "name": "to",
          "type": "address"
        },
        {
          "indexed": false,
          "internalType": "uint256",
          "name": "value",
          "type": "uint256"
        }
      ],
      "name": "Transfer",
      "type": "event"
    },
    {
      "stateMutability": "payable",
      "type": "fallback",
      "payable": true
    },
    {
      "inputs": [],
      "name": "TOKEN_PRICE",
      "outputs": [
        {
          "internalType": "uint256",
          "name": "",
          "type": "uint256"
        }
      ],
      "stateMutability": "view",
      "type": "function",
      "constant": true
    },
    {
      "inputs": [
        {
          "internalType": "address",
          "name": "owner",
          "type": "address"
        },
        {
          "internalType": "address",
          "name": "spender",
          "type": "address"
        }
      ],
      "name": "allowance",
      "outputs": [
        {
          "internalType": "uint256",
          "name": "",
          "type": "uint256"
        }
      ],
      "stateMutability": "view",
      "type": "function",
      "constant": true
    },
    {
      "inputs": [
        {
          "internalType": "address",
          "name": "spender",
          "type": "address"
        },
        {
          "internalType": "uint256",
          "name": "amount",
          "type": "uint256"
        }
      ],
      "name": "approve",
      "outputs": [
        {
          "internalType": "bool",
          "name": "",
          "type": "bool"
        }
      ],
      "stateMutability": "nonpayable",
      "type": "function"
    },
    {
      "inputs": [
        {
          "internalType": "address",
          "name": "account",
          "type": "address"
        }
      ],
      "name": "balanceOf",
      "outputs": [
        {
          "internalType": "uint256",
          "name": "",
          "type": "uint256"
        }
      ],
      "stateMutability": "view",
      "type": "function",
      "constant": true
    },
    {
      "inputs": [],
      "name": "decimals",
      "outputs": [
        {
          "internalType": "uint8",
          "name": "",
          "type": "uint8"
        }
      ],
      "stateMutability": "view",
      "type": "function",
      "constant": true
    },
    {
      "inputs": [
        {
          "internalType": "address",
          "name": "spender",
          "type": "address"
        },
        {
          "internalType": "uint256",
          "name": "subtractedValue",
          "type": "uint256"
        }
      ],
      "name": "decreaseAllowance",
      "outputs": [
        {
          "internalType": "bool",
          "name": "",
          "type": "bool"
        }
      ],
      "stateMutability": "nonpayable",
      "type": "function"
    },
    {
      "inputs": [
        {
          "internalType": "address",
          "name": "spender",
          "type": "address"
        },
        {
          "internalType": "uint256",
          "name": "addedValue",
          "type": "uint256"
        }
      ],
      "name": "increaseAllowance",
      "outputs": [
        {
          "internalType": "bool",
          "name": "",
          "type": "bool"
        }
      ],
      "stateMutability": "nonpayable",
      "type": "function"
    },
    {
      "inputs": [],
      "name": "name",
      "outputs": [
        {
          "internalType": "string",
          "name": "",
          "type": "string"
        }
      ],
      "stateMutability": "view",
      "type": "function",
      "constant": true
    },
    {
      "inputs": [
        {
          "internalType": "uint256",
          "name": "",
          "type": "uint256"
        }
      ],
      "name": "rounds",
      "outputs": [
        {
          "internalType": "uint256",
          "name": "endTime",
          "type": "uint256"
        },
        {
          "internalType": "address",
          "name": "resultContract",
          "type": "address"
        }
      ],
      "stateMutability": "view",
      "type": "function",
      "constant": true
    },
    {
      "inputs": [],
      "name": "symbol",
      "outputs": [
        {
          "internalType": "string",
          "name": "",
          "type": "string"
        }
      ],
      "stateMutability": "view",
      "type": "function",
      "constant": true
    },
    {
      "inputs": [
        {
          "internalType": "uint256",
          "name": "",
          "type": "uint256"
        }
      ],
      "name": "tickets",
      "outputs": [
        {
          "internalType": "uint256",
          "name": "value",
          "type": "uint256"
        },
        {
          "internalType": "uint256",
          "name": "ticketPrice",
          "type": "uint256"
        },
        {
          "internalType": "bool",
          "name": "payed",
          "type": "bool"
        },
        {
          "internalType": "uint256",
          "name": "roundId",
          "type": "uint256"
        }
      ],
      "stateMutability": "view",
      "type": "function",
      "constant": true
    },
    {
      "inputs": [],
      "name": "totalSupply",
      "outputs": [
        {
          "internalType": "uint256",
          "name": "",
          "type": "uint256"
        }
      ],
      "stateMutability": "view",
      "type": "function",
      "constant": true
    },
    {
      "inputs": [
        {
          "internalType": "address",
          "name": "recipient",
          "type": "address"
        },
        {
          "internalType": "uint256",
          "name": "amount",
          "type": "uint256"
        }
      ],
      "name": "transfer",
      "outputs": [
        {
          "internalType": "bool",
          "name": "",
          "type": "bool"
        }
      ],
      "stateMutability": "nonpayable",
      "type": "function"
    },
    {
      "inputs": [
        {
          "internalType": "address",
          "name": "sender",
          "type": "address"
        },
        {
          "internalType": "address",
          "name": "recipient",
          "type": "address"
        },
        {
          "internalType": "uint256",
          "name": "amount",
          "type": "uint256"
        }
      ],
      "name": "transferFrom",
      "outputs": [
        {
          "internalType": "bool",
          "name": "",
          "type": "bool"
        }
      ],
      "stateMutability": "nonpayable",
      "type": "function"
    },
    {
      "stateMutability": "payable",
      "type": "receive",
      "payable": true
    },
    {
      "inputs": [
        {
          "internalType": "address",
          "name": "_resultContract",
          "type": "address"
        },
        {
          "internalType": "uint256",
          "name": "_endTime",
          "type": "uint256"
        },
        {
          "internalType": "uint256",
          "name": "_balance",
          "type": "uint256"
        }
      ],
      "name": "createRound",
      "outputs": [],
      "stateMutability": "nonpayable",
      "type": "function"
    },
    {
      "inputs": [
        {
          "internalType": "uint256",
          "name": "_roundId",
          "type": "uint256"
        },
        {
          "internalType": "uint256",
          "name": "_price",
          "type": "uint256"
        },
        {
          "internalType": "uint256",
          "name": "_data",
          "type": "uint256"
        }
      ],
      "name": "buyTicket",
      "outputs": [],
      "stateMutability": "nonpayable",
      "type": "function"
    },
    {
      "inputs": [
        {
          "internalType": "uint256",
          "name": "ticketId",
          "type": "uint256"
        }
      ],
      "name": "withDrawTicket",
      "outputs": [],
      "stateMutability": "nonpayable",
      "type": "function"
    },
    {
      "inputs": [],
      "name": "buyToken",
      "outputs": [],
      "stateMutability": "payable",
      "type": "function",
      "payable": true
    }
  ],
  "bytecode": "0x60806040523480156200001157600080fd5b506040518060400160405280600481526020017f43686970000000000000000000000000000000000000000000000000000000008152506040518060400160405280600381526020017f4348490000000000000000000000000000000000000000000000000000000000815250816003908051906020019062000096929190620000b8565b508060049080519060200190620000af929190620000b8565b505050620001cd565b828054620000c69062000168565b90600052602060002090601f016020900481019282620000ea576000855562000136565b82601f106200010557805160ff191683800117855562000136565b8280016001018555821562000136579182015b828111156200013557825182559160200191906001019062000118565b5b50905062000145919062000149565b5090565b5b80821115620001645760008160009055506001016200014a565b5090565b600060028204905060018216806200018157607f821691505b602082108114156200019857620001976200019e565b5b50919050565b7f4e487b7100000000000000000000000000000000000000000000000000000000600052602260045260246000fd5b6120d080620001dd6000396000f3fe60806040526004361061010d5760003560e01c806395d89b4111610095578063a9059cbb11610064578063a9059cbb146103b4578063aa9ef46a146103f1578063c4c6710d1461041a578063d2d8cb6714610443578063dd62ed3e1461046e5761011c565b806395d89b4114610319578063a457c2d714610344578063a482171914610381578063a702eb1b1461038b5761011c565b8063313ce567116100dc578063313ce567146101f6578063395093511461022157806350b447121461025e57806370a082311461029e5780638c65c81f146102db5761011c565b806306fdde0314610126578063095ea7b31461015157806318160ddd1461018e57806323b872dd146101b95761011c565b3661011c5761011a6104ab565b005b6101246104ab565b005b34801561013257600080fd5b5061013b610528565b6040516101489190611c60565b60405180910390f35b34801561015d57600080fd5b506101786004803603810190610173919061172f565b6105ba565b6040516101859190611c45565b60405180910390f35b34801561019a57600080fd5b506101a36105d8565b6040516101b09190611d82565b60405180910390f35b3480156101c557600080fd5b506101e060048036038101906101db91906116e0565b6105e2565b6040516101ed9190611c45565b60405180910390f35b34801561020257600080fd5b5061020b6106e3565b6040516102189190611e0b565b60405180910390f35b34801561022d57600080fd5b506102486004803603810190610243919061172f565b6106ec565b6040516102559190611c45565b60405180910390f35b34801561026a57600080fd5b50610285600480360381019061028091906117e3565b610798565b6040516102959493929190611dc6565b60405180910390f35b3480156102aa57600080fd5b506102c560048036038101906102c0919061167b565b6107e5565b6040516102d29190611d82565b60405180910390f35b3480156102e757600080fd5b5061030260048036038101906102fd91906117e3565b61082d565b604051610310929190611d9d565b60405180910390f35b34801561032557600080fd5b5061032e610881565b60405161033b9190611c60565b60405180910390f35b34801561035057600080fd5b5061036b6004803603810190610366919061172f565b610913565b6040516103789190611c45565b60405180910390f35b6103896104ab565b005b34801561039757600080fd5b506103b260048036038101906103ad919061176b565b610a07565b005b3480156103c057600080fd5b506103db60048036038101906103d6919061172f565b610ba4565b6040516103e89190611c45565b60405180910390f35b3480156103fd57600080fd5b50610418600480360381019061041391906117e3565b610bc2565b005b34801561042657600080fd5b50610441600480360381019061043c919061180c565b610bc5565b005b34801561044f57600080fd5b50610458610e8a565b6040516104659190611d82565b60405180910390f35b34801561047a57600080fd5b50610495600480360381019061049091906116a4565b610e95565b6040516104a29190611d82565b60405180910390f35b662386f26fc100003410156104bf57600080fd5b662386f26fc10000346104d29190611e98565b6000803373ffffffffffffffffffffffffffffffffffffffff1673ffffffffffffffffffffffffffffffffffffffff168152602001908152602001600020600082825461051f9190611e42565b92505081905550565b60606003805461053790611f85565b80601f016020809104026020016040519081016040528092919081815260200182805461056390611f85565b80156105b05780601f10610585576101008083540402835291602001916105b0565b820191906000526020600020905b81548152906001019060200180831161059357829003601f168201915b5050505050905090565b60006105ce6105c7610f1c565b8484610f24565b6001905092915050565b6000600254905090565b60006105ef8484846110ef565b6000600160008673ffffffffffffffffffffffffffffffffffffffff1673ffffffffffffffffffffffffffffffffffffffff168152602001908152602001600020600061063a610f1c565b73ffffffffffffffffffffffffffffffffffffffff1673ffffffffffffffffffffffffffffffffffffffff168152602001908152602001600020549050828110156106ba576040517f08c379a00000000000000000000000000000000000000000000000000000000081526004016106b190611d02565b60405180910390fd5b6106d7856106c6610f1c565b85846106d29190611ec9565b610f24565b60019150509392505050565b60006012905090565b600061078e6106f9610f1c565b848460016000610707610f1c565b73ffffffffffffffffffffffffffffffffffffffff1673ffffffffffffffffffffffffffffffffffffffff16815260200190815260200160002060008873ffffffffffffffffffffffffffffffffffffffff1673ffffffffffffffffffffffffffffffffffffffff168152602001908152602001600020546107899190611e42565b610f24565b6001905092915050565b600581815481106107a857600080fd5b90600052602060002090600402016000915090508060000154908060010154908060020160009054906101000a900460ff16908060030154905084565b60008060008373ffffffffffffffffffffffffffffffffffffffff1673ffffffffffffffffffffffffffffffffffffffff168152602001908152602001600020549050919050565b6006818154811061083d57600080fd5b90600052602060002090600302016000915090508060000154908060010160009054906101000a900473ffffffffffffffffffffffffffffffffffffffff16905082565b60606004805461089090611f85565b80601f01602080910402602001604051908101604052809291908181526020018280546108bc90611f85565b80156109095780601f106108de57610100808354040283529160200191610909565b820191906000526020600020905b8154815290600101906020018083116108ec57829003601f168201915b5050505050905090565b60008060016000610922610f1c565b73ffffffffffffffffffffffffffffffffffffffff1673ffffffffffffffffffffffffffffffffffffffff16815260200190815260200160002060008573ffffffffffffffffffffffffffffffffffffffff1673ffffffffffffffffffffffffffffffffffffffff168152602001908152602001600020549050828110156109df576040517f08c379a00000000000000000000000000000000000000000000000000000000081526004016109d690611d62565b60405180910390fd5b6109fc6109ea610f1c565b8585846109f79190611ec9565b610f24565b600191505092915050565b610a0f61159b565b8281600001818152505083816020019073ffffffffffffffffffffffffffffffffffffffff16908173ffffffffffffffffffffffffffffffffffffffff168152505060068190806001815401808255809150506001900390600052602060002090600302016000909190919091506000820151816000015560208201518160010160006101000a81548173ffffffffffffffffffffffffffffffffffffffff021916908373ffffffffffffffffffffffffffffffffffffffff1602179055506040820151816002019080519060200190610aea9291906115d2565b50505060006001600680549050610b019190611ec9565b9050336008600083815260200190815260200160002060006101000a81548173ffffffffffffffffffffffffffffffffffffffff021916908373ffffffffffffffffffffffffffffffffffffffff160217905550610b6033828561136e565b7f48000d2cb1dc9e97966a065564e1756cf4b8ffa6b8532794e75ce81cf2fef6d333868686604051610b959493929190611c00565b60405180910390a15050505050565b6000610bb8610bb1610f1c565b84846110ef565b6001905092915050565b50565b610bce8361152a565b610c0d576040517f08c379a0000000000000000000000000000000000000000000000000000000008152600401610c0490611cc2565b60405180910390fd5b60068381548110610c47577f4e487b7100000000000000000000000000000000000000000000000000000000600052603260045260246000fd5b906000526020600020906003020160010160009054906101000a900473ffffffffffffffffffffffffffffffffffffffff1673ffffffffffffffffffffffffffffffffffffffff1663b546380d846040518263ffffffff1660e01b8152600401610cb19190611d82565b60206040518083038186803b158015610cc957600080fd5b505afa158015610cdd573d6000803e3d6000fd5b505050506040513d601f19601f82011682018060405250810190610d0191906117ba565b610d0a57600080fd5b610d1533848461136e565b600060405180608001604052808581526020018481526020016000151581526020018381525090506005819080600181540180825580915050600190039060005260206000209060040201600090919091909150600082015181600001556020820151816001015560408201518160020160006101000a81548160ff02191690831515021790555060608201518160030155505060006001600580549050610dbd9190611ec9565b905060068581548110610df9577f4e487b7100000000000000000000000000000000000000000000000000000000600052603260045260246000fd5b9060005260206000209060030201600201819080600181540180825580915050600190039060005260206000200160009091909190915055336009600083815260200190815260200160002060006101000a81548173ffffffffffffffffffffffffffffffffffffffff021916908373ffffffffffffffffffffffffffffffffffffffff1602179055505050505050565b662386f26fc1000081565b6000600160008473ffffffffffffffffffffffffffffffffffffffff1673ffffffffffffffffffffffffffffffffffffffff16815260200190815260200160002060008373ffffffffffffffffffffffffffffffffffffffff1673ffffffffffffffffffffffffffffffffffffffff16815260200190815260200160002054905092915050565b600033905090565b600073ffffffffffffffffffffffffffffffffffffffff168373ffffffffffffffffffffffffffffffffffffffff161415610f94576040517f08c379a0000000000000000000000000000000000000000000000000000000008152600401610f8b90611d42565b60405180910390fd5b600073ffffffffffffffffffffffffffffffffffffffff168273ffffffffffffffffffffffffffffffffffffffff161415611004576040517f08c379a0000000000000000000000000000000000000000000000000000000008152600401610ffb90611ca2565b60405180910390fd5b80600160008573ffffffffffffffffffffffffffffffffffffffff1673ffffffffffffffffffffffffffffffffffffffff16815260200190815260200160002060008473ffffffffffffffffffffffffffffffffffffffff1673ffffffffffffffffffffffffffffffffffffffff168152602001908152602001600020819055508173ffffffffffffffffffffffffffffffffffffffff168373ffffffffffffffffffffffffffffffffffffffff167f8c5be1e5ebec7d5bd14f71427d1e84f3dd0314c0f7b2291e5b200ac8c7c3b925836040516110e29190611d82565b60405180910390a3505050565b600073ffffffffffffffffffffffffffffffffffffffff168373ffffffffffffffffffffffffffffffffffffffff16141561115f576040517f08c379a000000000000000000000000000000000000000000000000000000000815260040161115690611d22565b60405180910390fd5b600073ffffffffffffffffffffffffffffffffffffffff168273ffffffffffffffffffffffffffffffffffffffff1614156111cf576040517f08c379a00000000000000000000000000000000000000000000000000000000081526004016111c690611c82565b60405180910390fd5b6111da838383611596565b60008060008573ffffffffffffffffffffffffffffffffffffffff1673ffffffffffffffffffffffffffffffffffffffff16815260200190815260200160002054905081811015611260576040517f08c379a000000000000000000000000000000000000000000000000000000000815260040161125790611ce2565b60405180910390fd5b818161126c9190611ec9565b6000808673ffffffffffffffffffffffffffffffffffffffff1673ffffffffffffffffffffffffffffffffffffffff16815260200190815260200160002081905550816000808573ffffffffffffffffffffffffffffffffffffffff1673ffffffffffffffffffffffffffffffffffffffff16815260200190815260200160002060008282546112fc9190611e42565b925050819055508273ffffffffffffffffffffffffffffffffffffffff168473ffffffffffffffffffffffffffffffffffffffff167fddf252ad1be2c89b69c2b068fc378daa952ba7f163c4a11628f55a4df523b3ef846040516113609190611d82565b60405180910390a350505050565b600073ffffffffffffffffffffffffffffffffffffffff168373ffffffffffffffffffffffffffffffffffffffff1614156113de576040517f08c379a00000000000000000000000000000000000000000000000000000000081526004016113d590611d22565b60405180910390fd5b6113e78261152a565b611426576040517f08c379a000000000000000000000000000000000000000000000000000000000815260040161141d90611cc2565b60405180910390fd5b60008060008573ffffffffffffffffffffffffffffffffffffffff1673ffffffffffffffffffffffffffffffffffffffff168152602001908152602001600020549050818110156114ac576040517f08c379a00000000000000000000000000000000000000000000000000000000081526004016114a390611ce2565b60405180910390fd5b81816114b89190611ec9565b6000808673ffffffffffffffffffffffffffffffffffffffff1673ffffffffffffffffffffffffffffffffffffffff168152602001908152602001600020819055508160076000858152602001908152602001600020600082825461151d9190611e42565b9250508190555050505050565b60008073ffffffffffffffffffffffffffffffffffffffff166008600084815260200190815260200160002060009054906101000a900473ffffffffffffffffffffffffffffffffffffffff1673ffffffffffffffffffffffffffffffffffffffff1614159050919050565b505050565b604051806060016040528060008152602001600073ffffffffffffffffffffffffffffffffffffffff168152602001606081525090565b82805482825590600052602060002090810192821561160e579160200282015b8281111561160d5782518255916020019190600101906115f2565b5b50905061161b919061161f565b5090565b5b80821115611638576000816000905550600101611620565b5090565b60008135905061164b81612055565b92915050565b6000815190506116608161206c565b92915050565b60008135905061167581612083565b92915050565b60006020828403121561168d57600080fd5b600061169b8482850161163c565b91505092915050565b600080604083850312156116b757600080fd5b60006116c58582860161163c565b92505060206116d68582860161163c565b9150509250929050565b6000806000606084860312156116f557600080fd5b60006117038682870161163c565b93505060206117148682870161163c565b925050604061172586828701611666565b9150509250925092565b6000806040838503121561174257600080fd5b60006117508582860161163c565b925050602061176185828601611666565b9150509250929050565b60008060006060848603121561178057600080fd5b600061178e8682870161163c565b935050602061179f86828701611666565b92505060406117b086828701611666565b9150509250925092565b6000602082840312156117cc57600080fd5b60006117da84828501611651565b91505092915050565b6000602082840312156117f557600080fd5b600061180384828501611666565b91505092915050565b60008060006060848603121561182157600080fd5b600061182f86828701611666565b935050602061184086828701611666565b925050604061185186828701611666565b9150509250925092565b61186481611efd565b82525050565b61187381611f0f565b82525050565b600061188482611e26565b61188e8185611e31565b935061189e818560208601611f52565b6118a781612044565b840191505092915050565b60006118bf602383611e31565b91507f45524332303a207472616e7366657220746f20746865207a65726f206164647260008301527f65737300000000000000000000000000000000000000000000000000000000006020830152604082019050919050565b6000611925602283611e31565b91507f45524332303a20617070726f766520746f20746865207a65726f20616464726560008301527f73730000000000000000000000000000000000000000000000000000000000006020830152604082019050919050565b600061198b602483611e31565b91507f4f70657261746f7220717565727920666f72206e6f6e6578697374656e74207260008301527f6f756e64000000000000000000000000000000000000000000000000000000006020830152604082019050919050565b60006119f1602683611e31565b91507f45524332303a207472616e7366657220616d6f756e742065786365656473206260008301527f616c616e636500000000000000000000000000000000000000000000000000006020830152604082019050919050565b6000611a57602883611e31565b91507f45524332303a207472616e7366657220616d6f756e742065786365656473206160008301527f6c6c6f77616e63650000000000000000000000000000000000000000000000006020830152604082019050919050565b6000611abd602583611e31565b91507f45524332303a207472616e736665722066726f6d20746865207a65726f20616460008301527f64726573730000000000000000000000000000000000000000000000000000006020830152604082019050919050565b6000611b23602483611e31565b91507f45524332303a20617070726f76652066726f6d20746865207a65726f2061646460008301527f72657373000000000000000000000000000000000000000000000000000000006020830152604082019050919050565b6000611b89602583611e31565b91507f45524332303a2064656372656173656420616c6c6f77616e63652062656c6f7760008301527f207a65726f0000000000000000000000000000000000000000000000000000006020830152604082019050919050565b611beb81611f3b565b82525050565b611bfa81611f45565b82525050565b6000608082019050611c15600083018761185b565b611c22602083018661185b565b611c2f6040830185611be2565b611c3c6060830184611be2565b95945050505050565b6000602082019050611c5a600083018461186a565b92915050565b60006020820190508181036000830152611c7a8184611879565b905092915050565b60006020820190508181036000830152611c9b816118b2565b9050919050565b60006020820190508181036000830152611cbb81611918565b9050919050565b60006020820190508181036000830152611cdb8161197e565b9050919050565b60006020820190508181036000830152611cfb816119e4565b9050919050565b60006020820190508181036000830152611d1b81611a4a565b9050919050565b60006020820190508181036000830152611d3b81611ab0565b9050919050565b60006020820190508181036000830152611d5b81611b16565b9050919050565b60006020820190508181036000830152611d7b81611b7c565b9050919050565b6000602082019050611d976000830184611be2565b92915050565b6000604082019050611db26000830185611be2565b611dbf602083018461185b565b9392505050565b6000608082019050611ddb6000830187611be2565b611de86020830186611be2565b611df5604083018561186a565b611e026060830184611be2565b95945050505050565b6000602082019050611e206000830184611bf1565b92915050565b600081519050919050565b600082825260208201905092915050565b6000611e4d82611f3b565b9150611e5883611f3b565b9250827fffffffffffffffffffffffffffffffffffffffffffffffffffffffffffffffff03821115611e8d57611e8c611fb7565b5b828201905092915050565b6000611ea382611f3b565b9150611eae83611f3b565b925082611ebe57611ebd611fe6565b5b828204905092915050565b6000611ed482611f3b565b9150611edf83611f3b565b925082821015611ef257611ef1611fb7565b5b828203905092915050565b6000611f0882611f1b565b9050919050565b60008115159050919050565b600073ffffffffffffffffffffffffffffffffffffffff82169050919050565b6000819050919050565b600060ff82169050919050565b60005b83811015611f70578082015181840152602081019050611f55565b83811115611f7f576000848401525b50505050565b60006002820490506001821680611f9d57607f821691505b60208210811415611fb157611fb0612015565b5b50919050565b7f4e487b7100000000000000000000000000000000000000000000000000000000600052601160045260246000fd5b7f4e487b7100000000000000000000000000000000000000000000000000000000600052601260045260246000fd5b7f4e487b7100000000000000000000000000000000000000000000000000000000600052602260045260246000fd5b6000601f19601f8301169050919050565b61205e81611efd565b811461206957600080fd5b50565b61207581611f0f565b811461208057600080fd5b50565b61208c81611f3b565b811461209757600080fd5b5056fea26469706673582212209311e121a567bb1767cd03930b0f04778e103e67d6da278cd733a5edff6b93c764736f6c63430008000033",
  "immutableReferences": {},
  "source": "// SPDX-License-Identifier: MIT\r\n\r\npragma solidity ^0.8.0;\r\n\r\nimport \"./CustomERC20.sol\";\r\n\r\nabstract contract checkResultInterface {\r\n    function checkResult(uint ticketId) external view virtual returns (int256);\r\n}\r\n\r\nabstract contract checkTicketBuyInterface {\r\n    function checkTicketBuy(uint roundId) external view virtual returns (bool);\r\n}\r\n\r\ncontract BoNhaCai is CustomERC20 {\r\n    uint public constant TOKEN_PRICE = 1e16; // 0.01 ether\r\n    constructor() CustomERC20(\"Chip\", \"CHI\") {\r\n    }\r\n\r\n    struct Ticket {\r\n        uint256 value;\r\n        uint256 ticketPrice;\r\n        bool payed;\r\n        uint256 roundId;\r\n    }\r\n\r\n    struct Round {\r\n        uint256 endTime;\r\n        address resultContract;\r\n        uint256[] ticketIds;\r\n    }\r\n\r\n    Ticket[] public tickets;\r\n    Round[] public rounds;\r\n\r\n    mapping(uint256 => uint256) private _balanceOfRounds;\r\n\r\n    mapping(uint256 => address) private _roundOwners;\r\n\r\n    mapping(uint256 => address) private _ticketOwners;\r\n\r\n    event NewRound(address owner, address resultContract, uint256 endTime, uint balance);\r\n\r\n    function createRound(\r\n        address _resultContract,\r\n        uint256 _endTime,\r\n        uint256 _balance\r\n    ) external {\r\n        Round memory newRound;\r\n        newRound.endTime = _endTime;\r\n        newRound.resultContract = _resultContract;\r\n        rounds.push(newRound);\r\n        uint roundId = rounds.length-1;\r\n        _roundOwners[roundId] = msg.sender;\r\n        _transferToRound(msg.sender, roundId, _balance);\r\n        emit NewRound(msg.sender, _resultContract, _endTime, _balance);\r\n    }\r\n\r\n    function buyTicket(\r\n        uint256 _roundId,\r\n        uint256 _price,\r\n        uint256 _data\r\n    ) external {\r\n        require(_roundExists(_roundId), \"Operator query for nonexistent round\");\r\n        require(checkTicketBuyInterface(rounds[_roundId].resultContract).checkTicketBuy(_roundId));\r\n        _transferToRound(msg.sender, _roundId, _price);\r\n        Ticket memory newTicket = Ticket(_roundId, _price, false, _data);\r\n        tickets.push(newTicket);\r\n        uint ticketId = tickets.length - 1;\r\n        rounds[_roundId].ticketIds.push(ticketId);\r\n        _ticketOwners[ticketId] = msg.sender;\r\n    }\r\n\r\n    function _transferToRound(\r\n        address _sender,\r\n        uint256 _roundId,\r\n        uint256 _amount\r\n    ) internal {\r\n        require(_sender != address(0), \"ERC20: transfer from the zero address\");\r\n        require(_roundExists(_roundId), \"Operator query for nonexistent round\");\r\n\r\n        uint256 senderBalance = _balances[_sender];\r\n        require(senderBalance >= _amount, \"ERC20: transfer amount exceeds balance\");\r\n        _balances[_sender] = senderBalance - _amount;\r\n        _balanceOfRounds[_roundId] += _amount;\r\n    }\r\n\r\n    function _transferFromRound(\r\n        address _recipient,\r\n        uint256 _roundId,\r\n        uint256 _amount\r\n    ) internal {\r\n        require(\r\n            _recipient != address(0),\r\n            \"ERC20: transfer to the zero address\"\r\n        );\r\n        require(_roundExists(_roundId), \"Operator query for nonexistent round\");\r\n\r\n        uint256 senderBalance = _balanceOfRounds[_roundId];\r\n        require(\r\n            senderBalance >= _amount,\r\n            \"ERC20: transfer amount exceeds balance\"\r\n        );\r\n        _balanceOfRounds[_roundId] = senderBalance - _amount;\r\n        _balances[_recipient] += _amount;\r\n    }\r\n\r\n    function withDrawTicket (uint ticketId) external{\r\n        \r\n    }\r\n\r\n    function _roundExists(uint256 _roundId) internal view returns (bool) {\r\n        return _roundOwners[_roundId] != address(0);\r\n    }\r\n\r\n    function _ticketExists(uint256 _roundId) internal view returns (bool) {\r\n        return _ticketOwners[_roundId] != address(0);\r\n    }\r\n\r\n    function buyToken() public payable{\r\n        require(msg.value >= TOKEN_PRICE);\r\n        _balances[msg.sender] += (msg.value/TOKEN_PRICE);\r\n    }\r\n\r\n    fallback () payable external{\r\n        buyToken();\r\n    }\r\n\r\n    receive() external payable {\r\n        buyToken();\r\n    }\r\n}\r\n",
  "sourcePath": "D:/roulette/lottery/contracts/BoNhaCai.sol",
  "compiler": {
    "name": "solc",
    "version": "0.8.0+commit.c7dfd78e.Emscripten.clang"
  },
  "schemaVersion": "3.3.4",
  "updatedAt": "2021-04-12T16:48:54.478Z",
  "networkType": "ethereum",
  "devdoc": {
    "kind": "dev",
    "methods": {
      "allowance(address,address)": {
        "details": "See {IERC20-allowance}."
      },
      "approve(address,uint256)": {
        "details": "See {IERC20-approve}. Requirements: - `spender` cannot be the zero address."
      },
      "balanceOf(address)": {
        "details": "See {IERC20-balanceOf}."
      },
      "decimals()": {
        "details": "Returns the number of decimals used to get its user representation. For example, if `decimals` equals `2`, a balance of `505` tokens should be displayed to a user as `5,05` (`505 / 10 ** 2`). Tokens usually opt for a value of 18, imitating the relationship between Ether and Wei. This is the value {ERC20} uses, unless this function is overloaded; NOTE: This information is only used for _display_ purposes: it in no way affects any of the arithmetic of the contract, including {IERC20-balanceOf} and {IERC20-transfer}."
      },
      "decreaseAllowance(address,uint256)": {
        "details": "Atomically decreases the allowance granted to `spender` by the caller. This is an alternative to {approve} that can be used as a mitigation for problems described in {IERC20-approve}. Emits an {Approval} event indicating the updated allowance. Requirements: - `spender` cannot be the zero address. - `spender` must have allowance for the caller of at least `subtractedValue`."
      },
      "increaseAllowance(address,uint256)": {
        "details": "Atomically increases the allowance granted to `spender` by the caller. This is an alternative to {approve} that can be used as a mitigation for problems described in {IERC20-approve}. Emits an {Approval} event indicating the updated allowance. Requirements: - `spender` cannot be the zero address."
      },
      "name()": {
        "details": "Returns the name of the token."
      },
      "symbol()": {
        "details": "Returns the symbol of the token, usually a shorter version of the name."
      },
      "totalSupply()": {
        "details": "See {IERC20-totalSupply}."
      },
      "transfer(address,uint256)": {
        "details": "See {IERC20-transfer}. Requirements: - `recipient` cannot be the zero address. - the caller must have a balance of at least `amount`."
      },
      "transferFrom(address,address,uint256)": {
        "details": "See {IERC20-transferFrom}. Emits an {Approval} event indicating the updated allowance. This is not required by the EIP. See the note at the beginning of {ERC20}. Requirements: - `sender` and `recipient` cannot be the zero address. - `sender` must have a balance of at least `amount`. - the caller must have allowance for ``sender``'s tokens of at least `amount`."
      }
    },
    "version": 1
  },
  "userdoc": {
    "kind": "user",
    "methods": {},
    "version": 1
  }
}