{
  "contractName": "NhaCaiBongDa",
  "abi": [
    {
      "inputs": [],
      "name": "checkResult",
      "outputs": [
        {
          "internalType": "int256",
          "name": "",
          "type": "int256"
        }
      ],
      "stateMutability": "view",
      "type": "function"
    }
  ],
  "bytecode": "0x608060405234801561001057600080fd5b5060b28061001f6000396000f3fe6080604052348015600f57600080fd5b506004361060285760003560e01c8063a21d942f14602d575b600080fd5b60336047565b604051603e91906059565b60405180910390f35b600090565b6053816072565b82525050565b6000602082019050606c6000830184604c565b92915050565b600081905091905056fea26469706673582212204276df988f21d36c2f0e3f37da000d28f5bd343037b84ddc712641632a693a2464736f6c63430008000033",
  "immutableReferences": {},
  "source": "// SPDX-License-Identifier: MIT\n\npragma solidity ^0.8.0;\n\ncontract NhaCaiBongDa {\n\n  function checkResult() external view returns (int){\n\n  }\n}",
  "sourcePath": "/home/ubuntu/dapp/Rolette_Blockchain/lottery/contracts/NhaCaiBongDa.sol",
  "compiler": {
    "name": "solc",
    "version": "0.8.0+commit.c7dfd78e.Emscripten.clang"
  },
  "schemaVersion": "3.3.4",
  "updatedAt": "2021-04-12T13:31:32.223Z",
  "devdoc": {
    "kind": "dev",
    "methods": {},
    "version": 1
  },
  "userdoc": {
    "kind": "user",
    "methods": {},
    "version": 1
  }
}