{
  "contractName": "SimpleLottery",
  "abi": [
    {
      "inputs": [
        {
          "internalType": "uint256",
          "name": "duration",
          "type": "uint256"
        }
      ],
      "stateMutability": "nonpayable",
      "type": "constructor"
    },
    {
      "stateMutability": "payable",
      "type": "fallback"
    },
    {
      "inputs": [],
      "name": "TICKET_PRICE",
      "outputs": [
        {
          "internalType": "uint256",
          "name": "",
          "type": "uint256"
        }
      ],
      "stateMutability": "view",
      "type": "function"
    },
    {
      "inputs": [],
      "name": "ticketingCloses",
      "outputs": [
        {
          "internalType": "uint256",
          "name": "",
          "type": "uint256"
        }
      ],
      "stateMutability": "view",
      "type": "function"
    },
    {
      "inputs": [
        {
          "internalType": "uint256",
          "name": "",
          "type": "uint256"
        }
      ],
      "name": "tickets",
      "outputs": [
        {
          "internalType": "address",
          "name": "",
          "type": "address"
        }
      ],
      "stateMutability": "view",
      "type": "function"
    },
    {
      "inputs": [],
      "name": "winner",
      "outputs": [
        {
          "internalType": "address",
          "name": "",
          "type": "address"
        }
      ],
      "stateMutability": "view",
      "type": "function"
    },
    {
      "stateMutability": "payable",
      "type": "receive"
    },
    {
      "inputs": [],
      "name": "buy",
      "outputs": [],
      "stateMutability": "payable",
      "type": "function"
    },
    {
      "inputs": [],
      "name": "drawWinner",
      "outputs": [],
      "stateMutability": "nonpayable",
      "type": "function"
    },
    {
      "inputs": [],
      "name": "withdraw",
      "outputs": [],
      "stateMutability": "payable",
      "type": "function"
    }
  ],
  "bytecode": "0x608060405234801561001057600080fd5b506040516108343803806108348339818101604052810190610032919061005f565b804261003e9190610088565b6002819055505061012e565b60008151905061005981610117565b92915050565b60006020828403121561007157600080fd5b600061007f8482850161004a565b91505092915050565b6000610093826100de565b915061009e836100de565b9250827fffffffffffffffffffffffffffffffffffffffffffffffffffffffffffffffff038211156100d3576100d26100e8565b5b828201905092915050565b6000819050919050565b7f4e487b7100000000000000000000000000000000000000000000000000000000600052601160045260246000fd5b610120816100de565b811461012b57600080fd5b50565b6106f78061013d6000396000f3fe6080604052600436106100745760003560e01c8063a6f2ae3a1161004e578063a6f2ae3a146100ff578063b2185bb114610109578063dfbf53ae14610120578063fdbbfbc61461014b57610083565b80631a95f15f1461008d5780633ccfd60b146100b857806350b44712146100c257610083565b3661008357610081610176565b005b61008b610176565b005b34801561009957600080fd5b506100a26101fc565b6040516100af9190610526565b60405180910390f35b6100c0610207565b005b3480156100ce57600080fd5b506100e960048036038101906100e49190610492565b6102aa565b6040516100f6919061050b565b60405180910390f35b610107610176565b005b34801561011557600080fd5b5061011e6102e9565b005b34801561012c57600080fd5b50610135610451565b604051610142919061050b565b60405180910390f35b34801561015757600080fd5b50610160610477565b60405161016d9190610526565b60405180910390f35b662386f26fc10000341461018957600080fd5b600254421061019757600080fd5b6000339080600181540180825580915050600190039060005260206000200160009091909190916101000a81548173ffffffffffffffffffffffffffffffffffffffff021916908373ffffffffffffffffffffffffffffffffffffffff160217905550565b662386f26fc1000081565b600160009054906101000a900473ffffffffffffffffffffffffffffffffffffffff1673ffffffffffffffffffffffffffffffffffffffff163373ffffffffffffffffffffffffffffffffffffffff161461026157600080fd5b3373ffffffffffffffffffffffffffffffffffffffff166108fc479081150290604051600060405180830381858888f193505050501580156102a7573d6000803e3d6000fd5b50565b600081815481106102ba57600080fd5b906000526020600020016000915054906101000a900473ffffffffffffffffffffffffffffffffffffffff1681565b61012c6002546102f99190610541565b421161030457600080fd5b600073ffffffffffffffffffffffffffffffffffffffff16600160009054906101000a900473ffffffffffffffffffffffffffffffffffffffff1673ffffffffffffffffffffffffffffffffffffffff161461035f57600080fd5b600060014361036e9190610597565b4060405160200161037f91906104f0565b604051602081830303815290604052805190602001209050600080805490508260001c6103ac919061061b565b815481106103e3577f4e487b7100000000000000000000000000000000000000000000000000000000600052603260045260246000fd5b9060005260206000200160009054906101000a900473ffffffffffffffffffffffffffffffffffffffff16600160006101000a81548173ffffffffffffffffffffffffffffffffffffffff021916908373ffffffffffffffffffffffffffffffffffffffff16021790555050565b600160009054906101000a900473ffffffffffffffffffffffffffffffffffffffff1681565b60025481565b60008135905061048c816106aa565b92915050565b6000602082840312156104a457600080fd5b60006104b28482850161047d565b91505092915050565b6104c4816105cb565b82525050565b6104db6104d6826105dd565b610611565b82525050565b6104ea81610607565b82525050565b60006104fc82846104ca565b60208201915081905092915050565b600060208201905061052060008301846104bb565b92915050565b600060208201905061053b60008301846104e1565b92915050565b600061054c82610607565b915061055783610607565b9250827fffffffffffffffffffffffffffffffffffffffffffffffffffffffffffffffff0382111561058c5761058b61064c565b5b828201905092915050565b60006105a282610607565b91506105ad83610607565b9250828210156105c0576105bf61064c565b5b828203905092915050565b60006105d6826105e7565b9050919050565b6000819050919050565b600073ffffffffffffffffffffffffffffffffffffffff82169050919050565b6000819050919050565b6000819050919050565b600061062682610607565b915061063183610607565b9250826106415761064061067b565b5b828206905092915050565b7f4e487b7100000000000000000000000000000000000000000000000000000000600052601160045260246000fd5b7f4e487b7100000000000000000000000000000000000000000000000000000000600052601260045260246000fd5b6106b381610607565b81146106be57600080fd5b5056fea2646970667358221220fe0807b5020564d4b4ae8142222c45341d9dd84c10c91b7004e371107435636964736f6c63430008000033",
  "immutableReferences": {},
  "source": "// SPDX-License-Identifier: MIT\npragma solidity ^0.8.0;\n\ncontract SimpleLottery {\n    uint public constant TICKET_PRICE = 1e16; // 0.01 ether\n\n    address[] public tickets;\n    address public winner;\n    uint public ticketingCloses;\n\n    constructor (uint duration) {\n        ticketingCloses = block.timestamp + duration;\n    }\n\n    function buy () public payable {\n        require(msg.value == TICKET_PRICE); \n        require(block.timestamp < ticketingCloses);\n\n        tickets.push(msg.sender);\n    }\n\n    function drawWinner () public {\n        require(block.timestamp > ticketingCloses + 5 minutes);\n        require(winner == address(0));\n\n        bytes32 rand = keccak256(\n            abi.encodePacked(blockhash(block.number-1))\n        );\n        winner = tickets[uint(rand) % tickets.length];\n    }\n\n\n    function withdraw () public payable{\n        require(msg.sender == winner);\n        payable(msg.sender).transfer(address(this).balance);\n    }\n\n    fallback () payable external{\n        buy();\n    }\n\n    receive() external payable {\n        buy();\n    }\n}",
  "sourcePath": "/home/ubuntu/dapp/Rolette_Blockchain/lottery/contracts/SimpleLottery.sol",
  "compiler": {
    "name": "solc",
    "version": "0.8.0+commit.c7dfd78e.Emscripten.clang"
  },
  "schemaVersion": "3.3.4",
  "updatedAt": "2021-04-12T13:31:32.227Z",
  "devdoc": {
    "kind": "dev",
    "methods": {},
    "version": 1
  },
  "userdoc": {
    "kind": "user",
    "methods": {},
    "version": 1
  }
}