{
  "contractName": "SimpleLottery",
  "abi": [
    {
      "inputs": [
        {
          "internalType": "uint256",
          "name": "duration",
          "type": "uint256"
        }
      ],
      "payable": false,
      "stateMutability": "nonpayable",
      "type": "constructor"
    },
    {
      "payable": true,
      "stateMutability": "payable",
      "type": "fallback"
    },
    {
      "constant": true,
      "inputs": [],
      "name": "TICKET_PRICE",
      "outputs": [
        {
          "internalType": "uint256",
          "name": "",
          "type": "uint256"
        }
      ],
      "payable": false,
      "stateMutability": "view",
      "type": "function"
    },
    {
      "constant": true,
      "inputs": [],
      "name": "ticketingCloses",
      "outputs": [
        {
          "internalType": "uint256",
          "name": "",
          "type": "uint256"
        }
      ],
      "payable": false,
      "stateMutability": "view",
      "type": "function"
    },
    {
      "constant": true,
      "inputs": [
        {
          "internalType": "uint256",
          "name": "",
          "type": "uint256"
        }
      ],
      "name": "tickets",
      "outputs": [
        {
          "internalType": "address",
          "name": "",
          "type": "address"
        }
      ],
      "payable": false,
      "stateMutability": "view",
      "type": "function"
    },
    {
      "constant": true,
      "inputs": [],
      "name": "winner",
      "outputs": [
        {
          "internalType": "address",
          "name": "",
          "type": "address"
        }
      ],
      "payable": false,
      "stateMutability": "view",
      "type": "function"
    },
    {
      "constant": false,
      "inputs": [],
      "name": "buy",
      "outputs": [],
      "payable": true,
      "stateMutability": "payable",
      "type": "function"
    },
    {
      "constant": false,
      "inputs": [],
      "name": "drawWinner",
      "outputs": [],
      "payable": false,
      "stateMutability": "nonpayable",
      "type": "function"
    },
    {
      "constant": false,
      "inputs": [],
      "name": "withdraw",
      "outputs": [],
      "payable": false,
      "stateMutability": "nonpayable",
      "type": "function"
    }
  ],
  "bytecode": "0x608060405234801561001057600080fd5b506040516105323803806105328339818101604052602081101561003357600080fd5b8101908080519060200190929190505050804201600281905550506104d58061005d6000396000f3fe6080604052600436106100705760003560e01c8063a6f2ae3a1161004e578063a6f2ae3a14610137578063b2185bb114610141578063dfbf53ae14610158578063fdbbfbc6146101af57610070565b80631a95f15f1461007a5780633ccfd60b146100a557806350b44712146100bc575b6100786101da565b005b34801561008657600080fd5b5061008f610263565b6040518082815260200191505060405180910390f35b3480156100b157600080fd5b506100ba61026e565b005b3480156100c857600080fd5b506100f5600480360360208110156100df57600080fd5b8101908080359060200190929190505050610311565b604051808273ffffffffffffffffffffffffffffffffffffffff1673ffffffffffffffffffffffffffffffffffffffff16815260200191505060405180910390f35b61013f6101da565b005b34801561014d57600080fd5b5061015661034d565b005b34801561016457600080fd5b5061016d610474565b604051808273ffffffffffffffffffffffffffffffffffffffff1673ffffffffffffffffffffffffffffffffffffffff16815260200191505060405180910390f35b3480156101bb57600080fd5b506101c461049a565b6040518082815260200191505060405180910390f35b662386f26fc1000034146101ed57600080fd5b60025442106101fb57600080fd5b60003390806001815401808255809150509060018203906000526020600020016000909192909190916101000a81548173ffffffffffffffffffffffffffffffffffffffff021916908373ffffffffffffffffffffffffffffffffffffffff16021790555050565b662386f26fc1000081565b600160009054906101000a900473ffffffffffffffffffffffffffffffffffffffff1673ffffffffffffffffffffffffffffffffffffffff163373ffffffffffffffffffffffffffffffffffffffff16146102c857600080fd5b3373ffffffffffffffffffffffffffffffffffffffff166108fc479081150290604051600060405180830381858888f1935050505015801561030e573d6000803e3d6000fd5b50565b6000818154811061031e57fe5b906000526020600020016000915054906101000a900473ffffffffffffffffffffffffffffffffffffffff1681565b61012c60025401421161035f57600080fd5b600073ffffffffffffffffffffffffffffffffffffffff16600160009054906101000a900473ffffffffffffffffffffffffffffffffffffffff1673ffffffffffffffffffffffffffffffffffffffff16146103ba57600080fd5b6000600143034060405160200180828152602001915050604051602081830303815290604052805190602001209050600080805490508260001c816103fb57fe5b068154811061040657fe5b9060005260206000200160009054906101000a900473ffffffffffffffffffffffffffffffffffffffff16600160006101000a81548173ffffffffffffffffffffffffffffffffffffffff021916908373ffffffffffffffffffffffffffffffffffffffff16021790555050565b600160009054906101000a900473ffffffffffffffffffffffffffffffffffffffff1681565b6002548156fea265627a7a723158208cad7de6184e555bf1b348143d562f3ff0b962fbf07b67bfde3b4c8225674d6b64736f6c63430005100032",
  "source": "pragma solidity >=0.4.22 <0.9.0; \n\ncontract SimpleLottery {\n    uint public constant TICKET_PRICE = 1e16; // 0.01 ether\n\n    address[] public tickets;\n    address public winner;\n    uint public ticketingCloses;\n\n    constructor (uint duration) public {\n        ticketingCloses = now + duration;\n    }\n\n    function buy () public payable {\n        require(msg.value == TICKET_PRICE); \n        require(now < ticketingCloses);\n\n        tickets.push(msg.sender);\n    }\n\n    function drawWinner () public {\n        require(now > ticketingCloses + 5 minutes);\n        require(winner == address(0));\n\n        bytes32 rand = keccak256(\n            abi.encodePacked(blockhash(block.number-1))\n        );\n        winner = tickets[uint(rand) % tickets.length];\n    }\n\n\n    function withdraw () public {\n        require(msg.sender == winner);\n        msg.sender.transfer(address(this).balance);\n    }\n\n    function () payable external{\n        buy();\n    }\n}",
  "sourcePath": "/home/ubuntu/dapp/lottery/contracts/SimpleLottery.sol",
  "compiler": {
    "name": "solc",
    "version": "0.5.16+commit.9c3226ce.Emscripten.clang"
  },
  "schemaVersion": "3.3.4",
  "updatedAt": "2021-04-08T08:13:17.769Z",
  "networkType": "ethereum",
  "devdoc": {
    "methods": {}
  },
  "userdoc": {
    "methods": {}
  }
}