{
  "contractName": "SimpleLottery",
  "abi": [
    {
      "inputs": [
        {
          "internalType": "address",
          "name": "addr",
          "type": "address"
        }
      ],
      "stateMutability": "nonpayable",
      "type": "constructor"
    },
    {
      "inputs": [],
      "name": "BoNhaCaiAddr",
      "outputs": [
        {
          "internalType": "address",
          "name": "",
          "type": "address"
        }
      ],
      "stateMutability": "view",
      "type": "function",
      "constant": true
    },
    {
      "inputs": [
        {
          "internalType": "uint256",
          "name": "",
          "type": "uint256"
        }
      ],
      "name": "winners",
      "outputs": [
        {
          "internalType": "uint256",
          "name": "",
          "type": "uint256"
        }
      ],
      "stateMutability": "view",
      "type": "function",
      "constant": true
    },
    {
      "inputs": [],
      "name": "Now",
      "outputs": [
        {
          "internalType": "uint256",
          "name": "",
          "type": "uint256"
        }
      ],
      "stateMutability": "view",
      "type": "function",
      "constant": true
    },
    {
      "inputs": [
        {
          "internalType": "uint256",
          "name": "roundId",
          "type": "uint256"
        }
      ],
      "name": "drawWinner",
      "outputs": [],
      "stateMutability": "nonpayable",
      "type": "function"
    },
    {
      "inputs": [
        {
          "internalType": "uint256",
          "name": "ticketId",
          "type": "uint256"
        }
      ],
      "name": "checkResult",
      "outputs": [
        {
          "internalType": "uint256",
          "name": "",
          "type": "uint256"
        }
      ],
      "stateMutability": "view",
      "type": "function",
      "constant": true
    },
    {
      "inputs": [
        {
          "internalType": "uint256",
          "name": "roundId",
          "type": "uint256"
        },
        {
          "internalType": "uint256",
          "name": "_data",
          "type": "uint256"
        }
      ],
      "name": "checkTicketBuy",
      "outputs": [
        {
          "internalType": "bool",
          "name": "",
          "type": "bool"
        }
      ],
      "stateMutability": "view",
      "type": "function",
      "constant": true
    },
    {
      "inputs": [
        {
          "internalType": "uint256",
          "name": "_data",
          "type": "uint256"
        },
        {
          "internalType": "uint256",
          "name": "_endTime",
          "type": "uint256"
        }
      ],
      "name": "checkRoundCreate",
      "outputs": [
        {
          "internalType": "bool",
          "name": "",
          "type": "bool"
        }
      ],
      "stateMutability": "view",
      "type": "function",
      "constant": true
    }
  ],
  "bytecode": "0x608060405234801561001057600080fd5b50604051610dd7380380610dd7833981810160405281019061003291906100ce565b806000806101000a81548173ffffffffffffffffffffffffffffffffffffffff021916908373ffffffffffffffffffffffffffffffffffffffff16021790555080600160006101000a81548173ffffffffffffffffffffffffffffffffffffffff021916908373ffffffffffffffffffffffffffffffffffffffff16021790555050610140565b6000815190506100c881610129565b92915050565b6000602082840312156100e057600080fd5b60006100ee848285016100b9565b91505092915050565b600061010282610109565b9050919050565b600073ffffffffffffffffffffffffffffffffffffffff82169050919050565b610132816100f7565b811461013d57600080fd5b50565b610c888061014f6000396000f3fe608060405234801561001057600080fd5b506004361061007d5760003560e01c8063a2fb11751161005b578063a2fb1175146100da578063a713100d1461010a578063d6b2bbf41461013a578063e9f9d28b1461016a5761007d565b806344d4fd191461008257806360b2a56a146100a057806377efa2b5146100bc575b600080fd5b61008a61019a565b60405161009791906109ea565b60405180910390f35b6100ba60048036038101906100b59190610791565b6101a2565b005b6100c4610314565b6040516100d19190610979565b60405180910390f35b6100f460048036038101906100ef9190610791565b610338565b60405161010191906109ea565b60405180910390f35b610124600480360381019061011f91906107e3565b610350565b6040516101319190610994565b60405180910390f35b610154600480360381019061014f91906107e3565b61039e565b6040516101619190610994565b60405180910390f35b610184600480360381019061017f9190610791565b6104f9565b60405161019191906109ea565b60405180910390f35b600042905090565b60006002600083815260200190815260200160002054146101c257600080fd5b60606000806000600160009054906101000a900473ffffffffffffffffffffffffffffffffffffffff1673ffffffffffffffffffffffffffffffffffffffff16638f1327c0866040518263ffffffff1660e01b815260040161022491906109ea565b60006040518083038186803b15801561023c57600080fd5b505afa158015610250573d6000803e3d6000fd5b505050506040513d6000823e3d601f19601f82011682018060405250810190610279919061081f565b80975081945082955083965050505050603c826102969190610a73565b42116102a157600080fd5b60006001436102b09190610ac9565b406040516020016102c191906109af565b604051602081830303815290604052805190602001209050600185518260001c6102eb9190610b4f565b6102f59190610a73565b6002600088815260200190815260200160002081905550505050505050565b60008054906101000a900473ffffffffffffffffffffffffffffffffffffffff1681565b60026020528060005260406000206000915090505481565b6000428211610394576040517f08c379a000000000000000000000000000000000000000000000000000000000815260040161038b906109ca565b60405180910390fd5b6001905092915050565b600060606000806000600160009054906101000a900473ffffffffffffffffffffffffffffffffffffffff1673ffffffffffffffffffffffffffffffffffffffff16638f1327c0886040518263ffffffff1660e01b815260040161040291906109ea565b60006040518083038186803b15801561041a57600080fd5b505afa15801561042e573d6000803e3d6000fd5b505050506040513d6000823e3d601f19601f82011682018060405250810190610457919061081f565b809750819450829550839650505050508073ffffffffffffffffffffffffffffffffffffffff1660008054906101000a900473ffffffffffffffffffffffffffffffffffffffff1673ffffffffffffffffffffffffffffffffffffffff16146104bf57600080fd5b4282116104cb57600080fd5b60006002600089815260200190815260200160002054146104eb57600080fd5b600194505050505092915050565b6000806000806000600160009054906101000a900473ffffffffffffffffffffffffffffffffffffffff1673ffffffffffffffffffffffffffffffffffffffff16637dc379fa876040518263ffffffff1660e01b815260040161055c91906109ea565b60806040518083038186803b15801561057457600080fd5b505afa158015610588573d6000803e3d6000fd5b505050506040513d601f19601f820116820180604052508101906105ac919061089a565b80945081955082965083975050505050600160026000848152602001908152602001600020546105dc9190610ac9565b86141561069957600160009054906101000a900473ffffffffffffffffffffffffffffffffffffffff1673ffffffffffffffffffffffffffffffffffffffff166327f64634836040518263ffffffff1660e01b815260040161063e91906109ea565b60206040518083038186803b15801561065657600080fd5b505afa15801561066a573d6000803e3d6000fd5b505050506040513d601f19601f8201168201806040525081019061068e91906107ba565b9450505050506106a2565b60009450505050505b919050565b60006106ba6106b584610a36565b610a05565b905080838252602082019050828560208602820111156106d957600080fd5b60005b8581101561070957816106ef888261077c565b8452602084019350602083019250506001810190506106dc565b5050509392505050565b60008151905061072281610c0d565b92915050565b600082601f83011261073957600080fd5b81516107498482602086016106a7565b91505092915050565b60008151905061076181610c24565b92915050565b60008135905061077681610c3b565b92915050565b60008151905061078b81610c3b565b92915050565b6000602082840312156107a357600080fd5b60006107b184828501610767565b91505092915050565b6000602082840312156107cc57600080fd5b60006107da8482850161077c565b91505092915050565b600080604083850312156107f657600080fd5b600061080485828601610767565b925050602061081585828601610767565b9150509250929050565b6000806000806080858703121561083557600080fd5b60006108438782880161077c565b94505060206108548782880161077c565b935050604061086587828801610713565b925050606085015167ffffffffffffffff81111561088257600080fd5b61088e87828801610728565b91505092959194509250565b600080600080608085870312156108b057600080fd5b60006108be8782880161077c565b94505060206108cf8782880161077c565b93505060406108e08782880161077c565b92505060606108f187828801610752565b91505092959194509250565b61090681610afd565b82525050565b61091581610b0f565b82525050565b61092481610b1b565b82525050565b6000610937600383610a62565b91507f6e677500000000000000000000000000000000000000000000000000000000006000830152602082019050919050565b61097381610b45565b82525050565b600060208201905061098e60008301846108fd565b92915050565b60006020820190506109a9600083018461090c565b92915050565b60006020820190506109c4600083018461091b565b92915050565b600060208201905081810360008301526109e38161092a565b9050919050565b60006020820190506109ff600083018461096a565b92915050565b6000604051905081810181811067ffffffffffffffff82111715610a2c57610a2b610bde565b5b8060405250919050565b600067ffffffffffffffff821115610a5157610a50610bde565b5b602082029050602081019050919050565b600082825260208201905092915050565b6000610a7e82610b45565b9150610a8983610b45565b9250827fffffffffffffffffffffffffffffffffffffffffffffffffffffffffffffffff03821115610abe57610abd610b80565b5b828201905092915050565b6000610ad482610b45565b9150610adf83610b45565b925082821015610af257610af1610b80565b5b828203905092915050565b6000610b0882610b25565b9050919050565b60008115159050919050565b6000819050919050565b600073ffffffffffffffffffffffffffffffffffffffff82169050919050565b6000819050919050565b6000610b5a82610b45565b9150610b6583610b45565b925082610b7557610b74610baf565b5b828206905092915050565b7f4e487b7100000000000000000000000000000000000000000000000000000000600052601160045260246000fd5b7f4e487b7100000000000000000000000000000000000000000000000000000000600052601260045260246000fd5b7f4e487b7100000000000000000000000000000000000000000000000000000000600052604160045260246000fd5b610c1681610afd565b8114610c2157600080fd5b50565b610c2d81610b0f565b8114610c3857600080fd5b50565b610c4481610b45565b8114610c4f57600080fd5b5056fea2646970667358221220124ae82ccee5c4d54d230363bf7146677141810783ab21c054426888fa676b6464736f6c63430008000033",
  "immutableReferences": {},
  "source": "// SPDX-License-Identifier: MIT\npragma solidity ^0.8.0;\n\nimport \"./BoNhaCai.sol\";\n\ncontract SimpleLottery {\n    address public BoNhaCaiAddr;\n    BoNhaCai boNhaCai;\n\n    mapping(uint=>uint) public winners;\n\n    constructor (address addr) {\n        BoNhaCaiAddr = addr;\n        boNhaCai = BoNhaCai(payable(addr));\n    }\n    function Now() public view returns(uint256){\n        return block.timestamp;\n    }\n\n    function drawWinner (uint roundId) public {\n        require(winners[roundId]==0);\n        uint256[] memory ticketIds;\n        uint256 data;\n        uint256 endTime;\n        address resultContract; \n        (data,endTime,resultContract,ticketIds) = boNhaCai.getRound(roundId);\n\n        require(block.timestamp > endTime + 1 minutes);\n\n        bytes32 rand = keccak256(abi.encode(blockhash(block.number-1)));\n        winners[roundId] = uint(rand) % ticketIds.length + 1;\n    }\n\n    function checkResult(uint ticketId) external view virtual returns (uint256){\n        uint256 data;\n        uint256 ticketPrice;\n        uint256 roundId;\n        bool used;\n        (data, ticketPrice, roundId, used) = boNhaCai.getTicket(ticketId);\n        if(ticketId == winners[roundId]-1){\n            return boNhaCai.balanceOfRound(roundId);\n        }\n        else {\n            return 0;\n        }\n    }\n\n    function checkTicketBuy(uint roundId, uint256 _data) public view virtual returns (bool){\n        uint256[] memory ticketIds;\n        uint256 data;\n        uint256 endTime;\n        address resultContract; \n        (data,endTime,resultContract,ticketIds) = boNhaCai.getRound(roundId);\n        require(BoNhaCaiAddr == resultContract);\n        require(endTime > block.timestamp);\n        require(winners[roundId]==0);\n        return true;\n    }\n\n    function checkRoundCreate(uint _data, uint256 _endTime) public view virtual returns (bool){\n        require(_endTime>block.timestamp, \"ngu\");\n        return true;\n    }\n}",
  "sourcePath": "/Users/long/Desktop/Rolette_Blockchain/lottery/contracts/SimpleLottery.sol",
  "compiler": {
    "name": "solc",
    "version": "0.8.0+commit.c7dfd78e.Emscripten.clang"
  },
  "schemaVersion": "3.3.4",
  "updatedAt": "2021-04-14T12:18:18.315Z",
  "networkType": "ethereum",
  "devdoc": {
    "kind": "dev",
    "methods": {},
    "version": 1
  },
  "userdoc": {
    "kind": "user",
    "methods": {},
    "version": 1
  }
}