{
  "contractName": "SimpleLottery",
  "abi": [
    {
      "inputs": [
        {
          "internalType": "address",
          "name": "addr",
          "type": "address"
        }
      ],
      "stateMutability": "nonpayable",
      "type": "constructor"
    },
    {
      "inputs": [],
      "name": "BoNhaCaiAddr",
      "outputs": [
        {
          "internalType": "address",
          "name": "",
          "type": "address"
        }
      ],
      "stateMutability": "view",
      "type": "function",
      "constant": true
    },
    {
      "inputs": [
        {
          "internalType": "uint256",
          "name": "",
          "type": "uint256"
        }
      ],
      "name": "winners",
      "outputs": [
        {
          "internalType": "uint256",
          "name": "",
          "type": "uint256"
        }
      ],
      "stateMutability": "view",
      "type": "function",
      "constant": true
    },
    {
      "inputs": [],
      "name": "Now",
      "outputs": [
        {
          "internalType": "uint256",
          "name": "",
          "type": "uint256"
        }
      ],
      "stateMutability": "view",
      "type": "function",
      "constant": true
    },
    {
      "inputs": [
        {
          "internalType": "uint256",
          "name": "roundId",
          "type": "uint256"
        }
      ],
      "name": "drawWinner",
      "outputs": [],
      "stateMutability": "nonpayable",
      "type": "function"
    },
    {
      "inputs": [
        {
          "internalType": "uint256",
          "name": "ticketId",
          "type": "uint256"
        }
      ],
      "name": "checkResult",
      "outputs": [
        {
          "internalType": "uint256",
          "name": "",
          "type": "uint256"
        }
      ],
      "stateMutability": "view",
      "type": "function",
      "constant": true
    },
    {
      "inputs": [
        {
          "internalType": "uint256",
          "name": "roundId",
          "type": "uint256"
        },
        {
          "internalType": "uint256",
          "name": "_data",
          "type": "uint256"
        }
      ],
      "name": "checkTicketBuy",
      "outputs": [
        {
          "internalType": "bool",
          "name": "",
          "type": "bool"
        }
      ],
      "stateMutability": "view",
      "type": "function",
      "constant": true
    },
    {
      "inputs": [
        {
          "internalType": "uint256",
          "name": "_data",
          "type": "uint256"
        },
        {
          "internalType": "uint256",
          "name": "_endTime",
          "type": "uint256"
        }
      ],
      "name": "checkRoundCreate",
      "outputs": [
        {
          "internalType": "bool",
          "name": "",
          "type": "bool"
        }
      ],
      "stateMutability": "view",
      "type": "function",
      "constant": true
    }
  ],
  "bytecode": "0x608060405234801561001057600080fd5b50604051610d7f380380610d7f833981810160405281019061003291906100ce565b806000806101000a81548173ffffffffffffffffffffffffffffffffffffffff021916908373ffffffffffffffffffffffffffffffffffffffff16021790555080600160006101000a81548173ffffffffffffffffffffffffffffffffffffffff021916908373ffffffffffffffffffffffffffffffffffffffff16021790555050610140565b6000815190506100c881610129565b92915050565b6000602082840312156100e057600080fd5b60006100ee848285016100b9565b91505092915050565b600061010282610109565b9050919050565b600073ffffffffffffffffffffffffffffffffffffffff82169050919050565b610132816100f7565b811461013d57600080fd5b50565b610c308061014f6000396000f3fe608060405234801561001057600080fd5b506004361061007d5760003560e01c8063a2fb11751161005b578063a2fb1175146100da578063a713100d1461010a578063d6b2bbf41461013a578063e9f9d28b1461016a5761007d565b806344d4fd191461008257806360b2a56a146100a057806377efa2b5146100bc575b600080fd5b61008a61019a565b6040516100979190610992565b60405180910390f35b6100ba60048036038101906100b59190610739565b6101a2565b005b6100c4610314565b6040516100d19190610921565b60405180910390f35b6100f460048036038101906100ef9190610739565b610338565b6040516101019190610992565b60405180910390f35b610124600480360381019061011f919061078b565b610350565b604051610131919061093c565b60405180910390f35b610154600480360381019061014f919061078b565b61039e565b604051610161919061093c565b60405180910390f35b610184600480360381019061017f9190610739565b6104a1565b6040516101919190610992565b60405180910390f35b600042905090565b60006002600083815260200190815260200160002054146101c257600080fd5b60606000806000600160009054906101000a900473ffffffffffffffffffffffffffffffffffffffff1673ffffffffffffffffffffffffffffffffffffffff16638f1327c0866040518263ffffffff1660e01b81526004016102249190610992565b60006040518083038186803b15801561023c57600080fd5b505afa158015610250573d6000803e3d6000fd5b505050506040513d6000823e3d601f19601f8201168201806040525081019061027991906107c7565b80975081945082955083965050505050603c826102969190610a1b565b42116102a157600080fd5b60006001436102b09190610a71565b406040516020016102c19190610957565b604051602081830303815290604052805190602001209050600185518260001c6102eb9190610af7565b6102f59190610a1b565b6002600088815260200190815260200160002081905550505050505050565b60008054906101000a900473ffffffffffffffffffffffffffffffffffffffff1681565b60026020528060005260406000206000915090505481565b6000428211610394576040517f08c379a000000000000000000000000000000000000000000000000000000000815260040161038b90610972565b60405180910390fd5b6001905092915050565b600060606000806000600160009054906101000a900473ffffffffffffffffffffffffffffffffffffffff1673ffffffffffffffffffffffffffffffffffffffff16638f1327c0886040518263ffffffff1660e01b81526004016104029190610992565b60006040518083038186803b15801561041a57600080fd5b505afa15801561042e573d6000803e3d6000fd5b505050506040513d6000823e3d601f19601f8201168201806040525081019061045791906107c7565b8097508194508295508396505050505042821161047357600080fd5b600060026000898152602001908152602001600020541461049357600080fd5b600194505050505092915050565b6000806000806000600160009054906101000a900473ffffffffffffffffffffffffffffffffffffffff1673ffffffffffffffffffffffffffffffffffffffff16637dc379fa876040518263ffffffff1660e01b81526004016105049190610992565b60806040518083038186803b15801561051c57600080fd5b505afa158015610530573d6000803e3d6000fd5b505050506040513d601f19601f820116820180604052508101906105549190610842565b80945081955082965083975050505050600160026000848152602001908152602001600020546105849190610a71565b86141561064157600160009054906101000a900473ffffffffffffffffffffffffffffffffffffffff1673ffffffffffffffffffffffffffffffffffffffff166327f64634836040518263ffffffff1660e01b81526004016105e69190610992565b60206040518083038186803b1580156105fe57600080fd5b505afa158015610612573d6000803e3d6000fd5b505050506040513d601f19601f820116820180604052508101906106369190610762565b94505050505061064a565b60009450505050505b919050565b600061066261065d846109de565b6109ad565b9050808382526020820190508285602086028201111561068157600080fd5b60005b858110156106b157816106978882610724565b845260208401935060208301925050600181019050610684565b5050509392505050565b6000815190506106ca81610bb5565b92915050565b600082601f8301126106e157600080fd5b81516106f184826020860161064f565b91505092915050565b60008151905061070981610bcc565b92915050565b60008135905061071e81610be3565b92915050565b60008151905061073381610be3565b92915050565b60006020828403121561074b57600080fd5b60006107598482850161070f565b91505092915050565b60006020828403121561077457600080fd5b600061078284828501610724565b91505092915050565b6000806040838503121561079e57600080fd5b60006107ac8582860161070f565b92505060206107bd8582860161070f565b9150509250929050565b600080600080608085870312156107dd57600080fd5b60006107eb87828801610724565b94505060206107fc87828801610724565b935050604061080d878288016106bb565b925050606085015167ffffffffffffffff81111561082a57600080fd5b610836878288016106d0565b91505092959194509250565b6000806000806080858703121561085857600080fd5b600061086687828801610724565b945050602061087787828801610724565b935050604061088887828801610724565b9250506060610899878288016106fa565b91505092959194509250565b6108ae81610aa5565b82525050565b6108bd81610ab7565b82525050565b6108cc81610ac3565b82525050565b60006108df600383610a0a565b91507f6e677500000000000000000000000000000000000000000000000000000000006000830152602082019050919050565b61091b81610aed565b82525050565b600060208201905061093660008301846108a5565b92915050565b600060208201905061095160008301846108b4565b92915050565b600060208201905061096c60008301846108c3565b92915050565b6000602082019050818103600083015261098b816108d2565b9050919050565b60006020820190506109a76000830184610912565b92915050565b6000604051905081810181811067ffffffffffffffff821117156109d4576109d3610b86565b5b8060405250919050565b600067ffffffffffffffff8211156109f9576109f8610b86565b5b602082029050602081019050919050565b600082825260208201905092915050565b6000610a2682610aed565b9150610a3183610aed565b9250827fffffffffffffffffffffffffffffffffffffffffffffffffffffffffffffffff03821115610a6657610a65610b28565b5b828201905092915050565b6000610a7c82610aed565b9150610a8783610aed565b925082821015610a9a57610a99610b28565b5b828203905092915050565b6000610ab082610acd565b9050919050565b60008115159050919050565b6000819050919050565b600073ffffffffffffffffffffffffffffffffffffffff82169050919050565b6000819050919050565b6000610b0282610aed565b9150610b0d83610aed565b925082610b1d57610b1c610b57565b5b828206905092915050565b7f4e487b7100000000000000000000000000000000000000000000000000000000600052601160045260246000fd5b7f4e487b7100000000000000000000000000000000000000000000000000000000600052601260045260246000fd5b7f4e487b7100000000000000000000000000000000000000000000000000000000600052604160045260246000fd5b610bbe81610aa5565b8114610bc957600080fd5b50565b610bd581610ab7565b8114610be057600080fd5b50565b610bec81610aed565b8114610bf757600080fd5b5056fea2646970667358221220913426001889fc89ab36e5e45a8c9ef063a9db70a5790a5b02ad3b7240b5c47264736f6c63430008000033",
  "immutableReferences": {},
  "source": "// SPDX-License-Identifier: MIT\r\npragma solidity ^0.8.0;\r\n\r\nimport \"./BoNhaCai.sol\";\r\n\r\ncontract SimpleLottery {\r\n    address public BoNhaCaiAddr;\r\n    BoNhaCai boNhaCai;\r\n\r\n    mapping(uint=>uint) public winners;\r\n\r\n    constructor (address addr) {\r\n        BoNhaCaiAddr = addr;\r\n        boNhaCai = BoNhaCai(payable(addr));\r\n    }\r\n    function Now() public view returns(uint256){\r\n        return block.timestamp;\r\n    }\r\n\r\n    function drawWinner (uint roundId) public {\r\n        require(winners[roundId]==0);\r\n        uint256[] memory ticketIds;\r\n        uint256 data;\r\n        uint256 endTime;\r\n        address resultContract; \r\n        (data,endTime,resultContract,ticketIds) = boNhaCai.getRound(roundId);\r\n\r\n        require(block.timestamp > endTime + 1 minutes);\r\n\r\n        bytes32 rand = keccak256(abi.encode(blockhash(block.number-1)));\r\n        winners[roundId] = uint(rand) % ticketIds.length + 1;\r\n    }\r\n\r\n    function checkResult(uint ticketId) external view virtual returns (uint256){\r\n        uint256 data;\r\n        uint256 ticketPrice;\r\n        uint256 roundId;\r\n        bool used;\r\n        (data, ticketPrice, roundId, used) = boNhaCai.getTicket(ticketId);\r\n        if(ticketId == winners[roundId]-1){\r\n            return boNhaCai.balanceOfRound(roundId);\r\n        }\r\n        else {\r\n            return 0;\r\n        }\r\n    }\r\n\r\n    function checkTicketBuy(uint roundId, uint256 _data) public view virtual returns (bool){\r\n        uint256[] memory ticketIds;\r\n        uint256 data;\r\n        uint256 endTime;\r\n        address resultContract; \r\n        (data,endTime,resultContract,ticketIds) = boNhaCai.getRound(roundId);\r\n        require(endTime > block.timestamp);\r\n        require(winners[roundId]==0);\r\n        return true;\r\n    }\r\n\r\n    function checkRoundCreate(uint _data, uint256 _endTime) public view virtual returns (bool){\r\n        require(_endTime>block.timestamp, \"ngu\");\r\n        return true;\r\n    }\r\n}",
  "sourcePath": "D:/roulette/lottery/contracts/SimpleLottery.sol",
  "compiler": {
    "name": "solc",
    "version": "0.8.0+commit.c7dfd78e.Emscripten.clang"
  },
  "schemaVersion": "3.3.4",
  "updatedAt": "2021-04-14T10:29:37.515Z",
  "networkType": "ethereum",
  "devdoc": {
    "kind": "dev",
    "methods": {},
    "version": 1
  },
  "userdoc": {
    "kind": "user",
    "methods": {},
    "version": 1
  }
}